{
  "contractName": "EntryPoint",
  "abi": [
    {
      "inputs": [],
      "stateMutability": "nonpayable",
      "type": "constructor"
    },
    {
      "inputs": [
        {
          "internalType": "bool",
          "name": "success",
          "type": "bool"
        },
        {
          "internalType": "bytes",
          "name": "ret",
          "type": "bytes"
        }
      ],
      "name": "DelegateAndRevert",
      "type": "error"
    },
    {
      "inputs": [
        {
          "internalType": "uint256",
          "name": "opIndex",
          "type": "uint256"
        },
        {
          "internalType": "string",
          "name": "reason",
          "type": "string"
        }
      ],
      "name": "FailedOp",
      "type": "error"
    },
    {
      "inputs": [
        {
          "internalType": "uint256",
          "name": "opIndex",
          "type": "uint256"
        },
        {
          "internalType": "string",
          "name": "reason",
          "type": "string"
        },
        {
          "internalType": "bytes",
          "name": "inner",
          "type": "bytes"
        }
      ],
      "name": "FailedOpWithRevert",
      "type": "error"
    },
    {
      "inputs": [],
      "name": "InvalidShortString",
      "type": "error"
    },
    {
      "inputs": [
        {
          "internalType": "bytes",
          "name": "returnData",
          "type": "bytes"
        }
      ],
      "name": "PostOpReverted",
      "type": "error"
    },
    {
      "inputs": [],
      "name": "ReentrancyGuardReentrantCall",
      "type": "error"
    },
    {
      "inputs": [
        {
          "internalType": "address",
          "name": "sender",
          "type": "address"
        }
      ],
      "name": "SenderAddressResult",
      "type": "error"
    },
    {
      "inputs": [
        {
          "internalType": "address",
          "name": "aggregator",
          "type": "address"
        }
      ],
      "name": "SignatureValidationFailed",
      "type": "error"
    },
    {
      "inputs": [
        {
          "internalType": "string",
          "name": "str",
          "type": "string"
        }
      ],
      "name": "StringTooLong",
      "type": "error"
    },
    {
      "anonymous": false,
      "inputs": [
        {
          "indexed": true,
          "internalType": "bytes32",
          "name": "userOpHash",
          "type": "bytes32"
        },
        {
          "indexed": true,
          "internalType": "address",
          "name": "sender",
          "type": "address"
        },
        {
          "indexed": false,
          "internalType": "address",
          "name": "factory",
          "type": "address"
        },
        {
          "indexed": false,
          "internalType": "address",
          "name": "paymaster",
          "type": "address"
        }
      ],
      "name": "AccountDeployed",
      "type": "event"
    },
    {
      "anonymous": false,
      "inputs": [],
      "name": "BeforeExecution",
      "type": "event"
    },
    {
      "anonymous": false,
      "inputs": [
        {
          "indexed": true,
          "internalType": "address",
          "name": "account",
          "type": "address"
        },
        {
          "indexed": false,
          "internalType": "uint256",
          "name": "totalDeposit",
          "type": "uint256"
        }
      ],
      "name": "Deposited",
      "type": "event"
    },
    {
      "anonymous": false,
      "inputs": [],
      "name": "EIP712DomainChanged",
      "type": "event"
    },
    {
      "anonymous": false,
      "inputs": [
        {
          "indexed": true,
          "internalType": "bytes32",
          "name": "userOpHash",
          "type": "bytes32"
        },
        {
          "indexed": true,
          "internalType": "address",
          "name": "sender",
          "type": "address"
        },
        {
          "indexed": false,
          "internalType": "uint256",
          "name": "nonce",
          "type": "uint256"
        },
        {
          "indexed": false,
          "internalType": "bytes",
          "name": "revertReason",
          "type": "bytes"
        }
      ],
      "name": "PostOpRevertReason",
      "type": "event"
    },
    {
      "anonymous": false,
      "inputs": [
        {
          "indexed": true,
          "internalType": "address",
          "name": "aggregator",
          "type": "address"
        }
      ],
      "name": "SignatureAggregatorChanged",
      "type": "event"
    },
    {
      "anonymous": false,
      "inputs": [
        {
          "indexed": true,
          "internalType": "address",
          "name": "account",
          "type": "address"
        },
        {
          "indexed": false,
          "internalType": "uint256",
          "name": "totalStaked",
          "type": "uint256"
        },
        {
          "indexed": false,
          "internalType": "uint256",
          "name": "unstakeDelaySec",
          "type": "uint256"
        }
      ],
      "name": "StakeLocked",
      "type": "event"
    },
    {
      "anonymous": false,
      "inputs": [
        {
          "indexed": true,
          "internalType": "address",
          "name": "account",
          "type": "address"
        },
        {
          "indexed": false,
          "internalType": "uint256",
          "name": "withdrawTime",
          "type": "uint256"
        }
      ],
      "name": "StakeUnlocked",
      "type": "event"
    },
    {
      "anonymous": false,
      "inputs": [
        {
          "indexed": true,
          "internalType": "address",
          "name": "account",
          "type": "address"
        },
        {
          "indexed": false,
          "internalType": "address",
          "name": "withdrawAddress",
          "type": "address"
        },
        {
          "indexed": false,
          "internalType": "uint256",
          "name": "amount",
          "type": "uint256"
        }
      ],
      "name": "StakeWithdrawn",
      "type": "event"
    },
    {
      "anonymous": false,
      "inputs": [
        {
          "indexed": true,
          "internalType": "bytes32",
          "name": "userOpHash",
          "type": "bytes32"
        },
        {
          "indexed": true,
          "internalType": "address",
          "name": "sender",
          "type": "address"
        },
        {
          "indexed": true,
          "internalType": "address",
          "name": "paymaster",
          "type": "address"
        },
        {
          "indexed": false,
          "internalType": "uint256",
          "name": "nonce",
          "type": "uint256"
        },
        {
          "indexed": false,
          "internalType": "bool",
          "name": "success",
          "type": "bool"
        },
        {
          "indexed": false,
          "internalType": "uint256",
          "name": "actualGasCost",
          "type": "uint256"
        },
        {
          "indexed": false,
          "internalType": "uint256",
          "name": "actualGasUsed",
          "type": "uint256"
        }
      ],
      "name": "UserOperationEvent",
      "type": "event"
    },
    {
      "anonymous": false,
      "inputs": [
        {
          "indexed": true,
          "internalType": "bytes32",
          "name": "userOpHash",
          "type": "bytes32"
        },
        {
          "indexed": true,
          "internalType": "address",
          "name": "sender",
          "type": "address"
        },
        {
          "indexed": false,
          "internalType": "uint256",
          "name": "nonce",
          "type": "uint256"
        }
      ],
      "name": "UserOperationPrefundTooLow",
      "type": "event"
    },
    {
      "anonymous": false,
      "inputs": [
        {
          "indexed": true,
          "internalType": "bytes32",
          "name": "userOpHash",
          "type": "bytes32"
        },
        {
          "indexed": true,
          "internalType": "address",
          "name": "sender",
          "type": "address"
        },
        {
          "indexed": false,
          "internalType": "uint256",
          "name": "nonce",
          "type": "uint256"
        },
        {
          "indexed": false,
          "internalType": "bytes",
          "name": "revertReason",
          "type": "bytes"
        }
      ],
      "name": "UserOperationRevertReason",
      "type": "event"
    },
    {
      "anonymous": false,
      "inputs": [
        {
          "indexed": true,
          "internalType": "address",
          "name": "account",
          "type": "address"
        },
        {
          "indexed": false,
          "internalType": "address",
          "name": "withdrawAddress",
          "type": "address"
        },
        {
          "indexed": false,
          "internalType": "uint256",
          "name": "amount",
          "type": "uint256"
        }
      ],
      "name": "Withdrawn",
      "type": "event"
    },
    {
      "inputs": [
        {
          "internalType": "uint32",
          "name": "unstakeDelaySec",
          "type": "uint32"
        }
      ],
      "name": "addStake",
      "outputs": [],
      "stateMutability": "payable",
      "type": "function"
    },
    {
      "inputs": [
        {
          "internalType": "address",
          "name": "account",
          "type": "address"
        }
      ],
      "name": "balanceOf",
      "outputs": [
        {
          "internalType": "uint256",
          "name": "",
          "type": "uint256"
        }
      ],
      "stateMutability": "view",
      "type": "function"
    },
    {
      "inputs": [
        {
          "internalType": "address",
          "name": "account",
          "type": "address"
        }
      ],
      "name": "depositTo",
      "outputs": [],
      "stateMutability": "payable",
      "type": "function"
    },
    {
      "inputs": [],
      "name": "eip712Domain",
      "outputs": [
        {
          "internalType": "bytes1",
          "name": "fields",
          "type": "bytes1"
        },
        {
          "internalType": "string",
          "name": "name",
          "type": "string"
        },
        {
          "internalType": "string",
          "name": "version",
          "type": "string"
        },
        {
          "internalType": "uint256",
          "name": "chainId",
          "type": "uint256"
        },
        {
          "internalType": "address",
          "name": "verifyingContract",
          "type": "address"
        },
        {
          "internalType": "bytes32",
          "name": "salt",
          "type": "bytes32"
        },
        {
          "internalType": "uint256[]",
          "name": "extensions",
          "type": "uint256[]"
        }
      ],
      "stateMutability": "view",
      "type": "function"
    },
    {
      "inputs": [
        {
          "internalType": "address",
          "name": "account",
          "type": "address"
        }
      ],
      "name": "getDepositInfo",
      "outputs": [
        {
          "components": [
            {
              "internalType": "uint256",
              "name": "deposit",
              "type": "uint256"
            },
            {
              "internalType": "bool",
              "name": "staked",
              "type": "bool"
            },
            {
              "internalType": "uint112",
              "name": "stake",
              "type": "uint112"
            },
            {
              "internalType": "uint32",
              "name": "unstakeDelaySec",
              "type": "uint32"
            },
            {
              "internalType": "uint48",
              "name": "withdrawTime",
              "type": "uint48"
            }
          ],
          "internalType": "struct IStakeManager.DepositInfo",
          "name": "info",
          "type": "tuple"
        }
      ],
      "stateMutability": "view",
      "type": "function"
    },
    {
      "inputs": [
        {
          "internalType": "address",
          "name": "sender",
          "type": "address"
        },
        {
          "internalType": "uint192",
          "name": "key",
          "type": "uint192"
        }
      ],
      "name": "getNonce",
      "outputs": [
        {
          "internalType": "uint256",
          "name": "nonce",
          "type": "uint256"
        }
      ],
      "stateMutability": "view",
      "type": "function"
    },
    {
      "inputs": [
        {
          "internalType": "uint192",
          "name": "key",
          "type": "uint192"
        }
      ],
      "name": "incrementNonce",
      "outputs": [],
      "stateMutability": "nonpayable",
      "type": "function"
    },
    {
      "inputs": [
        {
          "internalType": "address",
          "name": "",
          "type": "address"
        },
        {
          "internalType": "uint192",
          "name": "",
          "type": "uint192"
        }
      ],
      "name": "nonceSequenceNumber",
      "outputs": [
        {
          "internalType": "uint256",
          "name": "",
          "type": "uint256"
        }
      ],
      "stateMutability": "view",
      "type": "function"
    },
    {
      "inputs": [],
      "name": "unlockStake",
      "outputs": [],
      "stateMutability": "nonpayable",
      "type": "function"
    },
    {
      "inputs": [
        {
          "internalType": "address payable",
          "name": "withdrawAddress",
          "type": "address"
        }
      ],
      "name": "withdrawStake",
      "outputs": [],
      "stateMutability": "nonpayable",
      "type": "function"
    },
    {
      "inputs": [
        {
          "internalType": "address payable",
          "name": "withdrawAddress",
          "type": "address"
        },
        {
          "internalType": "uint256",
          "name": "withdrawAmount",
          "type": "uint256"
        }
      ],
      "name": "withdrawTo",
      "outputs": [],
      "stateMutability": "nonpayable",
      "type": "function"
    },
    {
      "stateMutability": "payable",
      "type": "receive"
    },
    {
      "inputs": [
        {
          "components": [
            {
              "internalType": "address",
              "name": "sender",
              "type": "address"
            },
            {
              "internalType": "uint256",
              "name": "nonce",
              "type": "uint256"
            },
            {
              "internalType": "bytes",
              "name": "initCode",
              "type": "bytes"
            },
            {
              "internalType": "bytes",
              "name": "callData",
              "type": "bytes"
            },
            {
              "internalType": "bytes32",
              "name": "accountGasLimits",
              "type": "bytes32"
            },
            {
              "internalType": "uint256",
              "name": "preVerificationGas",
              "type": "uint256"
            },
            {
              "internalType": "bytes32",
              "name": "gasFees",
              "type": "bytes32"
            },
            {
              "internalType": "bytes",
              "name": "paymasterAndData",
              "type": "bytes"
            },
            {
              "internalType": "bytes",
              "name": "signature",
              "type": "bytes"
            }
          ],
          "internalType": "struct PackedUserOperation[]",
          "name": "ops",
          "type": "tuple[]"
        },
        {
          "internalType": "address payable",
          "name": "beneficiary",
          "type": "address"
        }
      ],
      "name": "handleOps",
      "outputs": [],
      "stateMutability": "nonpayable",
      "type": "function"
    },
    {
      "inputs": [
        {
          "components": [
            {
              "components": [
                {
                  "internalType": "address",
                  "name": "sender",
                  "type": "address"
                },
                {
                  "internalType": "uint256",
                  "name": "nonce",
                  "type": "uint256"
                },
                {
                  "internalType": "bytes",
                  "name": "initCode",
                  "type": "bytes"
                },
                {
                  "internalType": "bytes",
                  "name": "callData",
                  "type": "bytes"
                },
                {
                  "internalType": "bytes32",
                  "name": "accountGasLimits",
                  "type": "bytes32"
                },
                {
                  "internalType": "uint256",
                  "name": "preVerificationGas",
                  "type": "uint256"
                },
                {
                  "internalType": "bytes32",
                  "name": "gasFees",
                  "type": "bytes32"
                },
                {
                  "internalType": "bytes",
                  "name": "paymasterAndData",
                  "type": "bytes"
                },
                {
                  "internalType": "bytes",
                  "name": "signature",
                  "type": "bytes"
                }
              ],
              "internalType": "struct PackedUserOperation[]",
              "name": "userOps",
              "type": "tuple[]"
            },
            {
              "internalType": "contract IAggregator",
              "name": "aggregator",
              "type": "address"
            },
            {
              "internalType": "bytes",
              "name": "signature",
              "type": "bytes"
            }
          ],
          "internalType": "struct IEntryPoint.UserOpsPerAggregator[]",
          "name": "opsPerAggregator",
          "type": "tuple[]"
        },
        {
          "internalType": "address payable",
          "name": "beneficiary",
          "type": "address"
        }
      ],
      "name": "handleAggregatedOps",
      "outputs": [],
      "stateMutability": "nonpayable",
      "type": "function"
    },
    {
      "inputs": [
        {
          "components": [
            {
              "internalType": "address",
              "name": "sender",
              "type": "address"
            },
            {
              "internalType": "uint256",
              "name": "nonce",
              "type": "uint256"
            },
            {
              "internalType": "bytes",
              "name": "initCode",
              "type": "bytes"
            },
            {
              "internalType": "bytes",
              "name": "callData",
              "type": "bytes"
            },
            {
              "internalType": "bytes32",
              "name": "accountGasLimits",
              "type": "bytes32"
            },
            {
              "internalType": "uint256",
              "name": "preVerificationGas",
              "type": "uint256"
            },
            {
              "internalType": "bytes32",
              "name": "gasFees",
              "type": "bytes32"
            },
            {
              "internalType": "bytes",
              "name": "paymasterAndData",
              "type": "bytes"
            },
            {
              "internalType": "bytes",
              "name": "signature",
              "type": "bytes"
            }
          ],
          "internalType": "struct PackedUserOperation",
          "name": "userOp",
          "type": "tuple"
        }
      ],
      "name": "getUserOpHash",
      "outputs": [
        {
          "internalType": "bytes32",
          "name": "",
          "type": "bytes32"
        }
      ],
      "stateMutability": "view",
      "type": "function"
    },
    {
      "inputs": [
        {
          "internalType": "bytes",
          "name": "initCode",
          "type": "bytes"
        }
      ],
      "name": "getSenderAddress",
      "outputs": [],
      "stateMutability": "nonpayable",
      "type": "function"
    },
    {
      "inputs": [],
      "name": "senderCreator",
      "outputs": [
        {
          "internalType": "contract ISenderCreator",
          "name": "",
          "type": "address"
        }
      ],
      "stateMutability": "view",
      "type": "function"
    },
    {
      "inputs": [
        {
          "internalType": "address",
          "name": "target",
          "type": "address"
        },
        {
          "internalType": "bytes",
          "name": "data",
          "type": "bytes"
        }
      ],
      "name": "delegateAndRevert",
      "outputs": [],
      "stateMutability": "nonpayable",
      "type": "function"
    },
    {
      "inputs": [],
      "name": "getPackedUserOpTypeHash",
      "outputs": [
        {
          "internalType": "bytes32",
          "name": "",
          "type": "bytes32"
        }
      ],
      "stateMutability": "pure",
      "type": "function"
    },
    {
      "inputs": [],
      "name": "getDomainSeparatorV4",
      "outputs": [
        {
          "internalType": "bytes32",
          "name": "",
          "type": "bytes32"
        }
      ],
      "stateMutability": "view",
      "type": "function"
    },
    {
      "inputs": [
        {
          "internalType": "bytes4",
          "name": "interfaceId",
          "type": "bytes4"
        }
      ],
      "name": "supportsInterface",
      "outputs": [
        {
          "internalType": "bool",
          "name": "",
          "type": "bool"
        }
      ],
      "stateMutability": "view",
      "type": "function"
    },
    {
      "inputs": [
        {
          "internalType": "bytes",
          "name": "callData",
          "type": "bytes"
        },
        {
          "components": [
            {
              "components": [
                {
                  "internalType": "address",
                  "name": "sender",
                  "type": "address"
                },
                {
                  "internalType": "uint256",
                  "name": "nonce",
                  "type": "uint256"
                },
                {
                  "internalType": "uint256",
                  "name": "verificationGasLimit",
                  "type": "uint256"
                },
                {
                  "internalType": "uint256",
                  "name": "callGasLimit",
                  "type": "uint256"
                },
                {
                  "internalType": "uint256",
                  "name": "paymasterVerificationGasLimit",
                  "type": "uint256"
                },
                {
                  "internalType": "uint256",
                  "name": "paymasterPostOpGasLimit",
                  "type": "uint256"
                },
                {
                  "internalType": "uint256",
                  "name": "preVerificationGas",
                  "type": "uint256"
                },
                {
                  "internalType": "address",
                  "name": "paymaster",
                  "type": "address"
                },
                {
                  "internalType": "uint256",
                  "name": "maxFeePerGas",
                  "type": "uint256"
                },
                {
                  "internalType": "uint256",
                  "name": "maxPriorityFeePerGas",
                  "type": "uint256"
                }
              ],
              "internalType": "struct EntryPoint.MemoryUserOp",
              "name": "mUserOp",
              "type": "tuple"
            },
            {
              "internalType": "bytes32",
              "name": "userOpHash",
              "type": "bytes32"
            },
            {
              "internalType": "uint256",
              "name": "prefund",
              "type": "uint256"
            },
            {
              "internalType": "uint256",
              "name": "contextOffset",
              "type": "uint256"
            },
            {
              "internalType": "uint256",
              "name": "preOpGas",
              "type": "uint256"
            }
          ],
          "internalType": "struct EntryPoint.UserOpInfo",
          "name": "opInfo",
          "type": "tuple"
        },
        {
          "internalType": "bytes",
          "name": "context",
          "type": "bytes"
        }
      ],
      "name": "innerHandleOp",
      "outputs": [
        {
          "internalType": "uint256",
          "name": "actualGasCost",
          "type": "uint256"
        }
      ],
      "stateMutability": "nonpayable",
      "type": "function"
    }
  ],
  "bytecode": "0x610180604052604051610011906101a7565b604051809103905ff08015801561002a573d5f5f3e3d5ffd5b506001600160a01b031661016052348015610043575f5ffd5b5060408051808201825260078152664552433433333760c81b602080830191909152825180840190935260018352603160f81b908301529061008682600261012f565b6101205261009581600361012f565b61014052815160208084019190912060e052815190820120610100524660a05261012160e05161010051604080517f8b73c3c69bb8fe3d512ecc4cf759cc79239f7b179b0ffacaa9a75d522b39400f60208201529081019290925260608201524660808201523060a08201525f9060c00160405160208183030381529060405280519060200120905090565b60805250503060c05261035e565b5f60208351101561014a5761014383610161565b905061015b565b81610155848261024c565b5060ff90505b92915050565b5f5f829050601f81511115610194578260405163305a27a960e01b815260040161018b9190610306565b60405180910390fd5b805161019f8261033b565b179392505050565b6105428061429183390190565b634e487b7160e01b5f52604160045260245ffd5b600181811c908216806101dc57607f821691505b6020821081036101fa57634e487b7160e01b5f52602260045260245ffd5b50919050565b601f82111561024757805f5260205f20601f840160051c810160208510156102255750805b601f840160051c820191505b81811015610244575f8155600101610231565b50505b505050565b81516001600160401b03811115610265576102656101b4565b6102798161027384546101c8565b84610200565b6020601f8211600181146102ab575f83156102945750848201515b5f19600385901b1c1916600184901b178455610244565b5f84815260208120601f198516915b828110156102da57878501518255602094850194600190920191016102ba565b50848210156102f757868401515f19600387901b60f8161c191681555b50505050600190811b01905550565b602081525f82518060208401528060208501604085015e5f604082850101526040601f19601f83011684010191505092915050565b805160208083015191908110156101fa575f1960209190910360031b1b16919050565b60805160a05160c05160e05161010051610120516101405161016051613ec36103ce5f395f81816101c901528181610e1501528181612ad50152612c1d01525f611e6601525f611e3901525f61184301525f61181b01525f61177601525f6117a001525f6117ca0152613ec35ff3fe608060405260043610610128575f3560e01c806335567e1a116100a8578063850aaf621161006d578063850aaf62146104b85780639b249f69146104d7578063b760faf9146104f6578063bb9fe6bf14610509578063c23a5cea1461051d578063dbed18e01461053c575f5ffd5b806335567e1a146102cc5780635287ce121461032a57806370a082311461043e578063765e827f1461047257806384b0196e14610491575f5ffd5b806313c65a6e116100ee57806313c65a6e14610212578063154e58dc146102265780631b2e01b814610258578063205c28781461028e57806322cdde4c146102ad575f5ffd5b806242dc531461013c57806301ffc9a71461016e5780630396cb601461019d57806309ccb880146101b05780630bd28e3b146101f3575f5ffd5b36610138576101363361055b565b005b5f5ffd5b348015610147575f5ffd5b5061015b6101563660046133b9565b6105b4565b6040519081526020015b60405180910390f35b348015610179575f5ffd5b5061018d61018836600461348a565b610748565b6040519015158152602001610165565b6101366101ab3660046134b1565b6107cf565b3480156101bb575f5ffd5b506040516001600160a01b037f0000000000000000000000000000000000000000000000000000000000000000168152602001610165565b3480156101fe575f5ffd5b5061013661020d3660046134ea565b610a5a565b34801561021d575f5ffd5b5061015b610a90565b348015610231575f5ffd5b507f29a0bca4af4be3421398da00295e58e6d7de38cb492214754cb6a47507dd6f8e61015b565b348015610263575f5ffd5b5061015b610272366004613503565b600160209081525f928352604080842090915290825290205481565b348015610299575f5ffd5b506101366102a8366004613536565b610a9e565b3480156102b8575f5ffd5b5061015b6102c7366004613560565b610be9565b3480156102d7575f5ffd5b5061015b6102e6366004613503565b6001600160a01b0382165f9081526001602090815260408083206001600160c01b038516845290915290819020549082901b67ffffffffffffffff19161792915050565b348015610335575f5ffd5b506103e4610344366004613597565b6040805160a0810182525f80825260208201819052918101829052606081018290526080810191909152506001600160a01b03165f9081526020818152604091829020825160a0810184528154815260019091015460ff811615159282019290925261010082046001600160701b031692810192909252600160781b810463ffffffff166060830152600160981b900465ffffffffffff16608082015290565b60405161016591905f60a082019050825182526020830151151560208301526001600160701b03604084015116604083015263ffffffff606084015116606083015265ffffffffffff608084015116608083015292915050565b348015610449575f5ffd5b5061015b610458366004613597565b6001600160a01b03165f9081526020819052604090205490565b34801561047d575f5ffd5b5061013661048c3660046135f2565b610c31565b34801561049c575f5ffd5b506104a5610d3f565b6040516101659796959493929190613672565b3480156104c3575f5ffd5b506101366104d2366004613708565b610d81565b3480156104e2575f5ffd5b506101366104f1366004613758565b610dfc565b610136610504366004613597565b61055b565b348015610514575f5ffd5b50610136610eb3565b348015610528575f5ffd5b50610136610537366004613597565b610fdd565b348015610547575f5ffd5b506101366105563660046135f2565b611202565b6001600160a01b0381165f8181526020818152604091829020805434019081905591518281529192917f2da466a7b24304f47e87fa2e1e5a81b9831ce54fec19055ce277ca2f39ba42c491015b60405180910390a25050565b5f5f5a905033301461060d5760405162461bcd60e51b815260206004820152601760248201527f4141393220696e7465726e616c2063616c6c206f6e6c7900000000000000000060448201526064015b60405180910390fd5b8451606081015160a082015181016127100160405a603f028161063257610632613796565b0410156106485763deaddead60e01b5f5260205ffd5b87515f90156106ec575f610661845f01515f8c86611542565b9050806106ea575f61067260405190565b90505f610680610800611558565b8051909150156106da57855f01516001600160a01b03168b602001517f1c4fada7374c0a9ee8841fc38afe82932dc0f8e69012e927f061a8bae611a2018860200151846040516106d19291906137aa565b60405180910390a35b6106e382604052565b6001935050505b505b5f88608001515a860301905061073a828a8a8a8080601f0160208091040260200160405190810160405280939291908181526020018383808284375f92019190915250879250611589915050565b9a9950505050505050505050565b5f6001600160e01b0319821663349869f760e11b148061077857506001600160e01b03198216631313998b60e31b145b8061079357506001600160e01b0319821663cf28ef9760e01b145b806107ae57506001600160e01b03198216633e84f02160e01b145b806107c957506301ffc9a760e01b6001600160e01b03198316145b92915050565b335f90815260208190526040902063ffffffff82166108305760405162461bcd60e51b815260206004820152601a60248201527f6d757374207370656369667920756e7374616b652064656c61790000000000006044820152606401610604565b600181015463ffffffff600160781b909104811690831610156108955760405162461bcd60e51b815260206004820152601c60248201527f63616e6e6f7420646563726561736520756e7374616b652074696d65000000006044820152606401610604565b60018101545f906108b590349061010090046001600160701b03166137d6565b90505f81116108fb5760405162461bcd60e51b81526020600482015260126024820152711b9bc81cdd185ad9481cdc1958da599a595960721b6044820152606401610604565b6001600160701b038111156109435760405162461bcd60e51b815260206004820152600e60248201526d7374616b65206f766572666c6f7760901b6044820152606401610604565b6040805160a08101825283548152600160208083018281526001600160701b0386811685870190815263ffffffff8a8116606088018181525f60808a0181815233808352828a52918c90209a518b55965199909801805494519151965165ffffffffffff16600160981b0265ffffffffffff60981b1997909416600160781b029690961669ffffffffffffffffffff60781b1991909516610100026effffffffffffffffffffffffffff0019991515999099166effffffffffffffffffffffffffffff1990941693909317979097179190911691909117179055835185815290810192909252917fa5ae833d0bb1dcd632d98a8b70973e8516812898e19bf27b70071ebc8dc52c01910160405180910390a2505050565b335f9081526001602090815260408083206001600160c01b03851684529091528120805491610a88836137e9565b919050555050565b5f610a9961176a565b905090565b335f908152602081905260409020805480831115610afe5760405162461bcd60e51b815260206004820152601960248201527f576974686472617720616d6f756e7420746f6f206c61726765000000000000006044820152606401610604565b610b088382613801565b8255604080516001600160a01b03861681526020810185905233917fd1c19fbcd4551a5edfb66d43d2e337c04837afda3482b42bdf569a8fccdae5fb910160405180910390a25f846001600160a01b0316846040515f6040518083038185875af1925050503d805f8114610b97576040519150601f19603f3d011682016040523d82523d5f602084013e610b9c565b606091505b5050905080610be25760405162461bcd60e51b81526020600482015260126024820152716661696c656420746f20776974686472617760701b6044820152606401610604565b5050505050565b5f5f610bf483611893565b9050610c2a610c01610a90565b610c0b8584611939565b60405161190160f01b8152600281019290925260228201526042902090565b9392505050565b610c39611953565b815f816001600160401b03811115610c5357610c536131ea565b604051908082528060200260200182016040528015610c8c57816020015b610c79613163565b815260200190600190039081610c715790505b509050610c9c8585835f5f6119c2565b506040515f907fbb47ee3e183a558b1a2ff0874b079f3fc5478b7454eacf2bfc5af2ff5878f972908290a15f5b83811015610d2457610d1881888884818110610ce757610ce7613814565b9050602002810190610cf99190613828565b858481518110610d0b57610d0b613814565b6020026020010151611a45565b90910190600101610cc9565b50610d2f8482611d13565b505050610d3a611e08565b505050565b5f6060805f5f5f6060610d50611e32565b610d58611e5f565b604080515f80825260208201909252600f60f81b9b939a50919850469750309650945092509050565b5f5f846001600160a01b03168484604051610d9d929190613847565b5f60405180830381855af49150503d805f8114610dd5576040519150601f19603f3d011682016040523d82523d5f602084013e610dda565b606091505b50915091508181604051632650415560e21b8152600401610604929190613856565b604051632b870d1b60e11b81525f906001600160a01b037f0000000000000000000000000000000000000000000000000000000000000000169063570e1a3690610e4c9086908690600401613898565b6020604051808303815f875af1158015610e68573d5f5f3e3d5ffd5b505050506040513d601f19601f82011682018060405250810190610e8c91906138ab565b604051633653dc0360e11b81526001600160a01b0382166004820152909150602401610604565b335f90815260208190526040812060018101549091600160781b90910463ffffffff169003610f115760405162461bcd60e51b815260206004820152600a6024820152691b9bdd081cdd185ad95960b21b6044820152606401610604565b600181015460ff16610f595760405162461bcd60e51b8152602060048201526011602482015270616c726561647920756e7374616b696e6760781b6044820152606401610604565b60018101545f90610f7790600160781b900463ffffffff16426138c6565b60018301805460ff65ffffffffffff60981b011916600160981b65ffffffffffff841690810260ff19169190911790915560405190815290915033907ffa9b3c14cc825c412c9ed81b3ba365a5b459439403f18829e572ed53a4180f0a906020016105a8565b335f908152602081905260409020600181015461010090046001600160701b0316806110425760405162461bcd60e51b81526020600482015260146024820152734e6f207374616b6520746f20776974686472617760601b6044820152606401610604565b6001820154600160981b900465ffffffffffff166110a25760405162461bcd60e51b815260206004820152601d60248201527f6d7573742063616c6c20756e6c6f636b5374616b6528292066697273740000006044820152606401610604565b600182015442600160981b90910465ffffffffffff1611156111065760405162461bcd60e51b815260206004820152601b60248201527f5374616b65207769746864726177616c206973206e6f742064756500000000006044820152606401610604565b600182018054610100600160c81b0319169055604080516001600160a01b03851681526020810183905233917fb7c918e0e249f999e965cafeb6c664271b3f4317d296461500e71da39f0cbda3910160405180910390a25f836001600160a01b0316826040515f6040518083038185875af1925050503d805f81146111a6576040519150601f19603f3d011682016040523d82523d5f602084013e6111ab565b606091505b50509050806111fc5760405162461bcd60e51b815260206004820152601860248201527f6661696c656420746f207769746864726177207374616b6500000000000000006044820152606401610604565b50505050565b61120a611953565b815f805b82811015611345573686868381811061122957611229613814565b905060200281019061123b91906138e4565b9050365f61124983806138f8565b90925090505f61125f6040850160208601613597565b9050806001600160a01b0381166001036112985760405163086a9f7560e41b81526001600160a01b039091166004820152602401610604565b506001600160a01b03811615611335576001600160a01b038116632dd8113384846112c6604089018961393d565b6040518563ffffffff1660e01b81526004016112e59493929190613a9f565b5f604051808303815f87803b1580156112fc575f5ffd5b505af192505050801561130d575060015b6113355760405163086a9f7560e41b81526001600160a01b0382166004820152602401610604565b509390930192505060010161120e565b505f816001600160401b0381111561135f5761135f6131ea565b60405190808252806020026020018201604052801561139857816020015b611385613163565b81526020019060019003908161137d5790505b5090505f805b8481101561141257368888838181106113b9576113b9613814565b90506020028101906113cb91906138e4565b9050365f6113d983806138f8565b90925090505f6113ef6040850160208601613597565b90506113fe838389848a6119c2565b9095019450506001909201915061139e9050565b506040517fbb47ee3e183a558b1a2ff0874b079f3fc5478b7454eacf2bfc5af2ff5878f972905f90a1505f80805b8581101561152a573689898381811061145b5761145b613814565b905060200281019061146d91906138e4565b905061147f6040820160208301613597565b6001600160a01b03167f575ff3acadd5ab348fe1855e217e0f3678f8d767d7494c9f9fefbee2e17cca4d60405160405180910390a2365f6114c083806138f8565b9092509050805f5b818110156115195761150a888585848181106114e6576114e6613814565b90506020028101906114f89190613828565b8b8b81518110610d0b57610d0b613814565b600198890198970196016114c8565b505060019093019250611440915050565b506115358682611d13565b5050505050610d3a611e08565b5f5f5f845160208601878987f195945050505050565b60603d821561156c578281111561156c5750815b604051602082018101604052818152815f602083013e9392505050565b5f5f5a85519091505f908161159d82611e8c565b90505f8260e0015190505f8960800151880390506115bf818560600151611eaf565b90970196505f6001600160a01b0382166115dc57835194506116b0565b8194505f895111156116b05782880296505f5a905060028c600281111561160557611605613b2a565b1461169757826001600160a01b0316637c627b218660a001518e8d8c896040518663ffffffff1660e01b81526004016116419493929190613b3e565b5f604051808303815f88803b158015611658575f5ffd5b5087f19350505050801561166a575060015b611697575f61167a610800611558565b905080604051632b5e552f60e21b81526004016106049190613b85565b5f5a820390506116ab818760a00151611eaf565b925050505b805a8703018801975082880296505f8a604001519050878110156117135760028c60028111156116e2576116e2613b2a565b03611704578097506116f38b611ecf565b6116ff8b5f8a8c611f1e565b61175b565b63deadaa5160e01b5f5260205ffd5b6001600160a01b0386165f90815260208190526040812080548a840390810190915590808e600281111561174957611749613b2a565b1490506117588d828c8e611f1e565b50505b50505050505050949350505050565b5f306001600160a01b037f0000000000000000000000000000000000000000000000000000000000000000161480156117c257507f000000000000000000000000000000000000000000000000000000000000000046145b156117ec57507f000000000000000000000000000000000000000000000000000000000000000090565b610a99604080517f8b73c3c69bb8fe3d512ecc4cf759cc79239f7b179b0ffacaa9a75d522b39400f60208201527f0000000000000000000000000000000000000000000000000000000000000000918101919091527f000000000000000000000000000000000000000000000000000000000000000060608201524660808201523060a08201525f9060c00160405160208183030381529060405280519060200120905090565b5f36816118a3604085018561393d565b915091506118b18282611f99565b6118be57505f9392505050565b5f6118d46118cf6020870187613597565b611fc2565b905060148211611919576040516001600160601b0319606083901b1660208201526034015b604051602081830303815290604052805190602001209350505050919050565b806119278360148187613b97565b6040516020016118f993929190613bbe565b5f611944838361208b565b80519060200120905092915050565b7f9b779b17422d0df92223018b32b4d1fa46e071723d6817e2486d003becc55f005c1561199357604051633ee5aeb560e01b815260040160405180910390fd5b6119c060017f9b779b17422d0df92223018b32b4d1fa46e071723d6817e2486d003becc55f005b90612184565b565b835f5b81811015611a3b575f85828501815181106119e2576119e2613814565b602002602001015190505f5f611a1e8487018b8b87818110611a0657611a06613814565b9050602002810190611a189190613828565b8561218b565b91509150611a3084870183838a6123ac565b5050506001016119c5565b5095945050505050565b5f5f5a90505f611a56846060015190565b90505f5f611a6360405190565b9050365f611a7460608a018a61393d565b9150915060605f826003811115611a8a57843591505b506372288ed160e01b6001600160e01b0319821601611b37575f8b8b60200151604051602401611abb929190613be4565b60408051601f198184030181529181526020820180516001600160e01b0316638dd7712f60e01b1790525190915030906242dc5390611b029084908f908d90602401613caf565b604051602081830303815290604052915060e01b6020820180516001600160e01b038381831617835250505050925050611b8c565b306001600160a01b03166242dc5385858d8b604051602401611b5c9493929190613ce3565b604051602081830303815290604052915060e01b6020820180516001600160e01b03838183161783525050505091505b60205f8351602085015f305af195505f519850611ba885604052565b505050505080611d09575f3d80602003611bc65760205f5f3e5f5191505b5063deaddead60e01b8103611c195787604051631101335b60e11b8152600401610604918152604060208201819052600f908201526e41413935206f7574206f662067617360881b606082015260800190565b63deadaa5160e01b8103611c68575f86608001515a611c389087613801565b611c4291906137d6565b6040880151909150611c5388611ecf565b611c5f885f8385611f1e565b9550611d079050565b5f611c7260405190565b875180516020808b01519201519293506001600160a01b0316917ff62676f440ff169a3a9afdbf812e89e7f95975ee8e5c31214ffdef631c5f479290611cb9610800611558565b604051611cc79291906137aa565b60405180910390a3611cd881604052565b5f87608001515a611ce99088613801565b611cf391906137d6565b9050611d026002898784611589565b965050505b505b5050509392505050565b6001600160a01b038216611d695760405162461bcd60e51b815260206004820152601860248201527f4141393020696e76616c69642062656e656669636961727900000000000000006044820152606401610604565b5f826001600160a01b0316826040515f6040518083038185875af1925050503d805f8114611db2576040519150601f19603f3d011682016040523d82523d5f602084013e611db7565b606091505b5050905080610d3a5760405162461bcd60e51b815260206004820152601f60248201527f41413931206661696c65642073656e6420746f2062656e6566696369617279006044820152606401610604565b6119c05f7f9b779b17422d0df92223018b32b4d1fa46e071723d6817e2486d003becc55f006119ba565b6060610a997f00000000000000000000000000000000000000000000000000000000000000006002612546565b6060610a997f00000000000000000000000000000000000000000000000000000000000000006003612546565b6101008101516101208201515f9190611ea7824883016125ef565b949350505050565b5f619c4083018211611ec257505f6107c9565b506064919003600a020490565b80518051602080840151928101516040519081526001600160a01b0390921692917f67b4fa9642f42120bf031f3051d1824b0fe25627945b27b8a6a65d5761d5482e910160405180910390a350565b835160e081015181516020808801519301516040516001600160a01b039384169492909316927f49628fd1471006c1482da88028e9ce4dbb080b815c9b0344d39e5a8e6ec1419f91611f8b9189908990899093845291151560208401526040830152606082015260800190565b60405180910390a450505050565b5f6002821015611faa57505f6107c9565b5050613b8160f11b90356001600160601b0319161490565b5f5f60175f5f853c505f516001600160e81b0319811661ef0160f01b14612079575f836001600160a01b03163b116120315760405162461bcd60e51b815260206004820152601260248201527173656e64657220686173206e6f20636f646560701b6044820152606401610604565b60405162461bcd60e51b815260206004820152601860248201527f6e6f7420616e204549502d373730322064656c656761746500000000000000006044820152606401610604565b60481c6001600160a01b031692915050565b60605f61209b6020850185613597565b905060208401355f8481036120c4576120bf6120ba604088018861393d565b612604565b6120c6565b845b90505f6120d96120ba606089018961393d565b9050608087013560a088013560c08901355f6120fb6120ba60e08d018d61393d565b604080517f29a0bca4af4be3421398da00295e58e6d7de38cb492214754cb6a47507dd6f8e60208201526001600160a01b039a909a168a82015260608a019890985260808901969096525060a087019390935260c086019190915260e0850152610100840152610120808401919091528151808403909101815261014090920190529392505050565b80825d5050565b5f5f5f5a845190915061219e8682612616565b5f6121a860405190565b90506121b387610be9565b60208701526121c181604052565b604082015161012083015161010084015160a08501516080860151606087015160c088015186171717171717896effffffffffffffffffffffffffffff8211156122555760408051631101335b60e11b815260048101929092526024820152601860448201527f41413934206761732076616c756573206f766572666c6f7700000000000000006064820152608401610604565b505f6122848560c081015160a08201516080830151606084015160408501516101009095015194010101010290565b60408a0181905290506122998b8b8b8461275a565b97506122ac855f01518660200151612841565b8b906123025760408051631101335b60e11b815260048101929092526024820152601a60448201527f4141323520696e76616c6964206163636f756e74206e6f6e63650000000000006064820152608401610604565b50825a8703111561235f578a604051631101335b60e11b8152600401610604918152604060208201819052601e908201527f41413236206f76657220766572696669636174696f6e4761734c696d69740000606082015260800190565b60e08501516060906001600160a01b031615612385576123808c8c8c61288d565b985090505b8060608b015260a08b01355a8803018a608001818152505050505050505050935093915050565b5f5f6123b785612991565b91509150816001600160a01b0316836001600160a01b03161461241d5785604051631101335b60e11b81526004016106049181526040602082018190526014908201527320a0991a1039b4b3b730ba3ab9329032b93937b960611b606082015260800190565b80156124755785604051631101335b60e11b81526004016106049181526040602082018190526017908201527f414132322065787069726564206f72206e6f7420647565000000000000000000606082015260800190565b5f61247f85612991565b925090506001600160a01b038116156124db5786604051631101335b60e11b81526004016106049181526040602082018190526014908201527320a0999a1039b4b3b730ba3ab9329032b93937b960611b606082015260800190565b811561253d5786604051631101335b60e11b81526004016106049181526040602082018190526021908201527f41413332207061796d61737465722065787069726564206f72206e6f742064756060820152606560f81b608082015260a00190565b50505050505050565b606060ff831461256057612559836129e1565b90506107c9565b81805461256c90613d18565b80601f016020809104026020016040519081016040528092919081815260200182805461259890613d18565b80156125e35780601f106125ba576101008083540402835291602001916125e3565b820191905f5260205f20905b8154815290600101906020018083116125c657829003601f168201915b505050505090506107c9565b5f8183106125fd5781610c2a565b5090919050565b5f604051828085833790209392505050565b6126236020830183613597565b6001600160a01b03168152602080830135908201526126456080830135612a1e565b6060830152604082015260a082013560c08083019190915261266990830135612a1e565b610100830152610120820152365f61268460e085018561393d565b909250905080156111fc5760348110156126e05760405162461bcd60e51b815260206004820152601d60248201527f4141393320696e76616c6964207061796d6173746572416e64446174610000006044820152606401610604565b5f6126eb8383612a3d565b60a0870152608086015290506001600160a01b0381166127465760405162461bcd60e51b815260206004820152601660248201527520a09c9c1034b73b30b634b2103830bcb6b0b9ba32b960511b6044820152606401610604565b6001600160a01b031660e084015250505050565b815180515f9190612778878661277360408a018a61393d565b612aa4565b60e08201515f6001600160a01b0382166127b9576001600160a01b0383165f908152602081905260409020548681116127b3578087036127b5565b5f5b9150505b6127c589898984612e69565b94506001600160a01b038216612835576127df8387612f8b565b6128355788604051631101335b60e11b81526004016106049181526040602082018190526017908201527f41413231206469646e2774207061792070726566756e64000000000000000000606082015260800190565b50505050949350505050565b6001600160a01b0382165f90815260016020908152604080832084821c80855292528220805484916001600160401b03831691908561287f836137e9565b909155501495945050505050565b60605f5f5a845160e0810151604087015192935090916128ad8282612f8b565b6129035788604051631101335b60e11b8152600401610604918152604060208201819052601e908201527f41413331207061796d6173746572206465706f73697420746f6f206c6f770000606082015260800190565b60808301516129138a8a8a612fc4565b9097509550805a860311156129845789604051631101335b60e11b81526004016106049181526040602082018190526027908201527f41413336206f766572207061796d6173746572566572696669636174696f6e47606082015266185cd31a5b5a5d60ca1b608082015260a00190565b5050505050935093915050565b5f5f825f036129a457505f928392509050565b5f6129ae846130cd565b9050806040015165ffffffffffff164211806129d65750806020015165ffffffffffff164211155b905194909350915050565b60605f6129ed8361313c565b6040805160208082528183019092529192505f91906020820181803683375050509182525060208101929092525090565b5f5f612a2a8360801c90565b6001600160801b03841691509150915091565b5f8080612a4d6014828688613b97565b612a5691613d50565b60601c612a67602460148789613b97565b612a7091613d8e565b60801c612a8160346024888a613b97565b612a8a91613d8e565b9194506001600160801b0316925060801c90509250925092565b80156111fc57825151612ab78383611f99565b15612b5d576014821115612b57578351604001516001600160a01b037f0000000000000000000000000000000000000000000000000000000000000000169063c09ad0d99083612b0a866014818a613b97565b6040518563ffffffff1660e01b8152600401612b2893929190613dc4565b5f604051808303815f88803b158015612b3f575f5ffd5b5087f1158015612b51573d5f5f3e3d5ffd5b50505050505b506111fc565b6001600160a01b0381163b15612bbf5784604051631101335b60e11b8152600401610604918152604060208201819052601f908201527f414131302073656e64657220616c726561647920636f6e737472756374656400606082015260800190565b6014821015612c1a5784604051631101335b60e11b81526004016106049181526040602082018190526017908201527f4141393920696e6974436f646520746f6f20736d616c6c000000000000000000606082015260800190565b5f7f00000000000000000000000000000000000000000000000000000000000000006001600160a01b031663570e1a36865f01516040015186866040518463ffffffff1660e01b8152600401612c71929190613898565b6020604051808303815f8887f1158015612c8d573d5f5f3e3d5ffd5b50505050506040513d601f19601f82011682018060405250810190612cb291906138ab565b90506001600160a01b038116612d145785604051631101335b60e11b8152600401610604918152604060208201819052601b908201527f4141313320696e6974436f6465206661696c6564206f72204f4f470000000000606082015260800190565b816001600160a01b0316816001600160a01b031614612d7e5785604051631101335b60e11b815260040161060491815260406020808301829052908201527f4141313420696e6974436f6465206d7573742072657475726e2073656e646572606082015260800190565b806001600160a01b03163b5f03612de05785604051631101335b60e11b815260040161060491815260406020808301829052908201527f4141313520696e6974436f6465206d757374206372656174652073656e646572606082015260800190565b5f612dee6014828688613b97565b612df791613d50565b60601c9050826001600160a01b031686602001517fd51a9c61267aa6196961883ecf5ff2da6619c37dac0fa92122513fb32c032d2d83895f015160e00151604051612e589291906001600160a01b0392831681529116602082015260400190565b60405180910390a350505050505050565b8151604081015190515f91908280612e8060405190565b90505f88886020015188604051602401612e9c93929190613df1565b60408051601f19818403018152919052602080820180516001600160e01b03166306608bdf60e21b178152825192935090915f9182888af192505f51955060203d14612ee6575f92505b612eef82604052565b505080612f8057816001600160a01b03163b5f03612f595787604051631101335b60e11b81526004016106049181526040602082018190526019908201527f41413230206163636f756e74206e6f74206465706c6f79656400000000000000606082015260800190565b87612f65610800611558565b6040516365c8fd4d60e01b8152600401610604929190613e15565b505050949350505050565b6001600160a01b0382165f908152602081905260408120805483811015612fb6575f925050506107c9565b839003905550600192915050565b60605f5f612fd160405190565b90505f8585602001518660400151604051602401612ff193929190613df1565b60408051601f198184030181529190526020810180516001600160e01b03166314add44b60e21b178152865160e08101516080909101518351939450909290915f9182918291829182918291829190828b8bf194503d9050805f8a3e6020890151995088519250606081039150604089019a508a519350841580613076575082604014155b8061308357508184601f01105b156130af578d613094610800611558565b6040516365c8fd4d60e01b8152600401610604929190613e51565b601f8101601f19168901604052505050505050505050935093915050565b604080516060810182525f80825260208201819052918101919091528160a081901c65ffffffffffff81165f03613107575065ffffffffffff5b604080516060810182526001600160a01b03909316835260d09490941c602083015265ffffffffffff16928101929092525090565b5f60ff8216601f8111156107c957604051632cd44ac360e21b815260040160405180910390fd5b6040518060a001604052806131cc6040518061014001604052805f6001600160a01b031681526020015f81526020015f81526020015f81526020015f81526020015f81526020015f81526020015f6001600160a01b031681526020015f81526020015f81525090565b81526020015f81526020015f81526020015f81526020015f81525090565b634e487b7160e01b5f52604160045260245ffd5b60405160a081016001600160401b0381118282101715613220576132206131ea565b60405290565b60405161014081016001600160401b0381118282101715613220576132206131ea565b604051601f8201601f191681016001600160401b0381118282101715613271576132716131ea565b604052919050565b6001600160a01b038116811461328d575f5ffd5b50565b803561329b81613279565b919050565b5f8183036101c08112156132b2575f5ffd5b6132ba6131fe565b91506101408112156132ca575f5ffd5b506132d3613226565b6132dc83613290565b81526020838101359082015260408084013590820152606080840135908201526080808401359082015260a0808401359082015260c0808401359082015261332660e08401613290565b60e08201526101008381013590820152610120808401359082015281526101408201356020820152610160820135604082015261018082013560608201526101a0909101356080820152919050565b5f5f83601f840112613385575f5ffd5b5081356001600160401b0381111561339b575f5ffd5b6020830191508360208285010111156133b2575f5ffd5b9250929050565b5f5f5f5f61020085870312156133cd575f5ffd5b84356001600160401b038111156133e2575f5ffd5b8501601f810187136133f2575f5ffd5b80356001600160401b0381111561340b5761340b6131ea565b61341e601f8201601f1916602001613249565b818152886020838501011115613432575f5ffd5b816020840160208301375f6020838301015280965050505061345786602087016132a0565b92506101e08501356001600160401b03811115613472575f5ffd5b61347e87828801613375565b95989497509550505050565b5f6020828403121561349a575f5ffd5b81356001600160e01b031981168114610c2a575f5ffd5b5f602082840312156134c1575f5ffd5b813563ffffffff81168114610c2a575f5ffd5b80356001600160c01b038116811461329b575f5ffd5b5f602082840312156134fa575f5ffd5b610c2a826134d4565b5f5f60408385031215613514575f5ffd5b823561351f81613279565b915061352d602084016134d4565b90509250929050565b5f5f60408385031215613547575f5ffd5b823561355281613279565b946020939093013593505050565b5f60208284031215613570575f5ffd5b81356001600160401b03811115613585575f5ffd5b82016101208185031215610c2a575f5ffd5b5f602082840312156135a7575f5ffd5b8135610c2a81613279565b5f5f83601f8401126135c2575f5ffd5b5081356001600160401b038111156135d8575f5ffd5b6020830191508360208260051b85010111156133b2575f5ffd5b5f5f5f60408486031215613604575f5ffd5b83356001600160401b03811115613619575f5ffd5b613625868287016135b2565b909450925050602084013561363981613279565b809150509250925092565b5f81518084528060208401602086015e5f602082860101526020601f19601f83011685010191505092915050565b60ff60f81b8816815260e060208201525f61369060e0830189613644565b82810360408401526136a28189613644565b606084018890526001600160a01b038716608085015260a0840186905283810360c0850152845180825260208087019350909101905f5b818110156136f75783518352602093840193909201916001016136d9565b50909b9a5050505050505050505050565b5f5f5f6040848603121561371a575f5ffd5b833561372581613279565b925060208401356001600160401b0381111561373f575f5ffd5b61374b86828701613375565b9497909650939450505050565b5f5f60208385031215613769575f5ffd5b82356001600160401b0381111561377e575f5ffd5b61378a85828601613375565b90969095509350505050565b634e487b7160e01b5f52601260045260245ffd5b828152604060208201525f611ea76040830184613644565b634e487b7160e01b5f52601160045260245ffd5b808201808211156107c9576107c96137c2565b5f600182016137fa576137fa6137c2565b5060010190565b818103818111156107c9576107c96137c2565b634e487b7160e01b5f52603260045260245ffd5b5f823561011e1983360301811261383d575f5ffd5b9190910192915050565b818382375f9101908152919050565b8215158152604060208201525f611ea76040830184613644565b81835281816020850137505f828201602090810191909152601f909101601f19169091010190565b602081525f611ea7602083018486613870565b5f602082840312156138bb575f5ffd5b8151610c2a81613279565b65ffffffffffff81811683821601908111156107c9576107c96137c2565b5f8235605e1983360301811261383d575f5ffd5b5f5f8335601e1984360301811261390d575f5ffd5b8301803591506001600160401b03821115613926575f5ffd5b6020019150600581901b36038213156133b2575f5ffd5b5f5f8335601e19843603018112613952575f5ffd5b8301803591506001600160401b0382111561396b575f5ffd5b6020019150368190038213156133b2575f5ffd5b5f5f8335601e19843603018112613994575f5ffd5b83016020810192503590506001600160401b038111156139b2575f5ffd5b8036038213156133b2575f5ffd5b6139da826139cd83613290565b6001600160a01b03169052565b602081810135908301525f6139f2604083018361397f565b6101206040860152613a0961012086018284613870565b915050613a19606084018461397f565b8583036060870152613a2c838284613870565b6080868101359088015260a0808701359088015260c080870135908801529250613a5c91505060e084018461397f565b85830360e0870152613a6f838284613870565b92505050613a8161010084018461397f565b858303610100870152613a95838284613870565b9695505050505050565b604080825281018490525f6060600586901b83018101908301878361011e1936839003015b89821015613b0857868503605f190184528235818112613ae2575f5ffd5b613aee868d83016139c0565b955050602083019250602084019350600182019150613ac4565b505050508281036020840152613b1f818587613870565b979650505050505050565b634e487b7160e01b5f52602160045260245ffd5b5f60038610613b5b57634e487b7160e01b5f52602160045260245ffd5b85825260806020830152613b726080830186613644565b6040830194909452506060015292915050565b602081525f610c2a6020830184613644565b5f5f85851115613ba5575f5ffd5b83861115613bb1575f5ffd5b5050820193919092039150565b6001600160601b03198460601b168152818360148301375f910160140190815292915050565b604081525f613bf660408301856139c0565b90508260208301529392505050565b805180516001600160a01b031683526020810151602084015260408101516040840152606081015160608401526080810151608084015260a081015160a084015260c081015160c084015260e0810151613c6a60e08501826001600160a01b03169052565b5061010081810151908401526101209081015190830152602081015161014083015260408101516101608301526060810151610180830152608001516101a090910152565b61020081525f613cc3610200830186613644565b613cd06020840186613c05565b8281036101e0840152613a958185613644565b61020081525f613cf861020083018688613870565b613d056020840186613c05565b8281036101e0840152613b1f8185613644565b600181811c90821680613d2c57607f821691505b602082108103613d4a57634e487b7160e01b5f52602260045260245ffd5b50919050565b80356001600160601b03198116906014841015613d87576001600160601b03196001600160601b03198560140360031b1b82161691505b5092915050565b80356001600160801b03198116906010841015613d87576001600160801b031960109490940360031b84901b1690921692915050565b6001600160a01b03841681526040602082018190525f90613de89083018486613870565b95945050505050565b606081525f613e0360608301866139c0565b60208301949094525060400152919050565b82815260606020820152600d60608201526c10504c8cc81c995d995c9d1959609a1b608082015260a060408201525f611ea760a0830184613644565b82815260606020820152600d60608201526c10504cccc81c995d995c9d1959609a1b608082015260a060408201525f611ea760a083018461364456fea2646970667358221220a3557930d177e560dc6f2968ae2796ded7615eea57bfe0c5e459893a329ee06264736f6c634300081c003360a0604052348015600e575f5ffd5b503360805260805161050b6100375f395f818160770152818160ba01526101bc015261050b5ff3fe608060405234801561000f575f5ffd5b506004361061003f575f3560e01c8063570e1a3614610043578063b0d691fe14610072578063c09ad0d914610099575b5f5ffd5b61005661005136600461029e565b6100ae565b6040516001600160a01b03909116815260200160405180910390f35b6100567f000000000000000000000000000000000000000000000000000000000000000081565b6100ac6100a7366004610320565b6101b1565b005b5f336001600160a01b037f0000000000000000000000000000000000000000000000000000000000000000161461012c5760405162461bcd60e51b815260206004820181905260248201527f414139372073686f756c642063616c6c2066726f6d20456e747279506f696e7460448201526064015b60405180910390fd5b5f61013a60148285876103f1565b61014391610418565b60601c90505f61015684601481886103f1565b8080601f0160208091040260200160405190810160405280939291908181526020018383808284375f92018290525084519495509360209350849250905082850182875af1905080156101a8575f5193505b50505092915050565b336001600160a01b037f000000000000000000000000000000000000000000000000000000000000000016146102295760405162461bcd60e51b815260206004820181905260248201527f414139372073686f756c642063616c6c2066726f6d20456e747279506f696e746044820152606401610123565b5f5f5f8351602085015f875af1905080610268575f61024961080061026d565b90505f816040516365c8fd4d60e01b8152600401610123929190610465565b505050565b60603d821561028157828111156102815750815b604051602082018101604052818152815f602083013e9392505050565b5f5f602083850312156102af575f5ffd5b823567ffffffffffffffff8111156102c5575f5ffd5b8301601f810185136102d5575f5ffd5b803567ffffffffffffffff8111156102eb575f5ffd5b8560208284010111156102fc575f5ffd5b6020919091019590945092505050565b634e487b7160e01b5f52604160045260245ffd5b5f5f60408385031215610331575f5ffd5b82356001600160a01b0381168114610347575f5ffd5b9150602083013567ffffffffffffffff811115610362575f5ffd5b8301601f81018513610372575f5ffd5b803567ffffffffffffffff81111561038c5761038c61030c565b604051601f8201601f19908116603f0116810167ffffffffffffffff811182821017156103bb576103bb61030c565b6040528181528282016020018710156103d2575f5ffd5b816020840160208301375f602083830101528093505050509250929050565b5f5f858511156103ff575f5ffd5b8386111561040b575f5ffd5b5050820193919092039150565b80356bffffffffffffffffffffffff19811690601484101561045e576bffffffffffffffffffffffff196bffffffffffffffffffffffff198560140360031b1b82161691505b5092915050565b82815260606020820152601f60608201527f4141313320454950373730322073656e64657220696e6974206661696c656400608082015260a060408201525f82518060a0840152806020850160c085015e5f60c0828501015260c0601f19601f830116840101915050939250505056fea2646970667358221220b3d0d5286673db7aca00b8077aecc990266af60af9b58d5b890cb352a1147ea164736f6c634300081c0033",
  "immutableReferences": {
    "1214": [
      {
        "length": 32,
        "start": 457
      },
      {
        "length": 32,
        "start": 3605
      },
      {
        "length": 32,
        "start": 10965
      },
      {
        "length": 32,
        "start": 11293
      }
    ],
    "9196": [
      {
        "length": 32,
        "start": 6090
      }
    ],
    "9198": [
      {
        "length": 32,
        "start": 6048
      }
    ],
    "9200": [
      {
        "length": 32,
        "start": 6006
      }
    ],
    "9202": [
      {
        "length": 32,
        "start": 6171
      }
    ],
    "9204": [
      {
        "length": 32,
        "start": 6211
      }
    ],
    "9207": [
      {
        "length": 32,
        "start": 7737
      }
    ],
    "9210": [
      {
        "length": 32,
        "start": 7782
      }
    ]
  },
  "source": "// SPDX-License-Identifier: GPL-3.0\npragma solidity ^0.8.28;\n/* solhint-disable avoid-low-level-calls */\n/* solhint-disable no-inline-assembly */\n\nimport \"../interfaces/IAccount.sol\";\nimport \"../interfaces/IAccountExecute.sol\";\nimport \"../interfaces/IEntryPoint.sol\";\nimport \"../interfaces/IPaymaster.sol\";\n\nimport \"./UserOperationLib.sol\";\nimport \"./StakeManager.sol\";\nimport \"./NonceManager.sol\";\nimport \"./Helpers.sol\";\nimport \"./SenderCreator.sol\";\nimport \"./Eip7702Support.sol\";\nimport \"../utils/Exec.sol\";\n\nimport \"@openzeppelin/contracts/utils/ReentrancyGuardTransient.sol\";\nimport \"@openzeppelin/contracts/utils/introspection/ERC165.sol\";\nimport \"@openzeppelin/contracts/utils/cryptography/EIP712.sol\";\n\n/**\n * Account-Abstraction (EIP-4337) singleton EntryPoint v0.8 implementation.\n * Only one instance required on each chain.\n * @custom:security-contact https://bounty.ethereum.org\n */\ncontract EntryPoint is IEntryPoint, StakeManager, NonceManager, ReentrancyGuardTransient, ERC165, EIP712 {\n\n    using UserOperationLib for PackedUserOperation;\n\n    /**\n     * internal-use constants\n     */\n\n    // allow some slack for future gas price changes.\n    uint256 private constant INNER_GAS_OVERHEAD = 10000;\n\n    // Marker for inner call revert on out of gas\n    bytes32 private constant INNER_OUT_OF_GAS = hex\"deaddead\";\n    bytes32 private constant INNER_REVERT_LOW_PREFUND = hex\"deadaa51\";\n\n    uint256 private constant REVERT_REASON_MAX_LEN = 2048;\n    // Penalty charged for either unused execution gas or postOp gas\n    uint256 private constant UNUSED_GAS_PENALTY_PERCENT = 10;\n    // Threshold below which no penalty would be charged\n    uint256 private constant PENALTY_GAS_THRESHOLD = 40000;\n\n    SenderCreator private immutable _senderCreator = new SenderCreator();\n\n    string constant internal DOMAIN_NAME = \"ERC4337\";\n    string constant internal DOMAIN_VERSION = \"1\";\n\n    constructor() EIP712(DOMAIN_NAME, DOMAIN_VERSION)  {\n    }\n\n    /// @inheritdoc IEntryPoint\n    function handleOps(\n        PackedUserOperation[] calldata ops,\n        address payable beneficiary\n    ) external nonReentrant {\n        uint256 opslen = ops.length;\n        UserOpInfo[] memory opInfos = new UserOpInfo[](opslen);\n        unchecked {\n            _iterateValidationPhase(ops, opInfos, address(0), 0);\n\n            uint256 collected = 0;\n            emit BeforeExecution();\n\n            for (uint256 i = 0; i < opslen; i++) {\n                collected += _executeUserOp(i, ops[i], opInfos[i]);\n            }\n\n            _compensate(beneficiary, collected);\n        }\n    }\n\n    /// @inheritdoc IEntryPoint\n    function handleAggregatedOps(\n        UserOpsPerAggregator[] calldata opsPerAggregator,\n        address payable beneficiary\n    ) external nonReentrant {\n\n        unchecked {\n            uint256 opasLen = opsPerAggregator.length;\n            uint256 totalOps = 0;\n            for (uint256 i = 0; i < opasLen; i++) {\n                UserOpsPerAggregator calldata opa = opsPerAggregator[i];\n                PackedUserOperation[] calldata ops = opa.userOps;\n                IAggregator aggregator = opa.aggregator;\n\n                // address(1) is special marker of \"signature error\"\n                require(\n                    address(aggregator) != address(1),\n                    SignatureValidationFailed(address(aggregator))\n                );\n\n                if (address(aggregator) != address(0)) {\n                    // solhint-disable-next-line no-empty-blocks\n                    try aggregator.validateSignatures(ops, opa.signature) {} catch {\n                        revert SignatureValidationFailed(address(aggregator));\n                    }\n                }\n\n                totalOps += ops.length;\n            }\n\n            UserOpInfo[] memory opInfos = new UserOpInfo[](totalOps);\n\n            uint256 opIndex = 0;\n            for (uint256 a = 0; a < opasLen; a++) {\n                UserOpsPerAggregator calldata opa = opsPerAggregator[a];\n                PackedUserOperation[] calldata ops = opa.userOps;\n                IAggregator aggregator = opa.aggregator;\n\n                opIndex += _iterateValidationPhase(ops, opInfos, address(aggregator), opIndex);\n            }\n\n            emit BeforeExecution();\n\n            uint256 collected = 0;\n            opIndex = 0;\n            for (uint256 a = 0; a < opasLen; a++) {\n                UserOpsPerAggregator calldata opa = opsPerAggregator[a];\n                emit SignatureAggregatorChanged(address(opa.aggregator));\n                PackedUserOperation[] calldata ops = opa.userOps;\n                uint256 opslen = ops.length;\n\n                for (uint256 i = 0; i < opslen; i++) {\n                    collected += _executeUserOp(opIndex, ops[i], opInfos[opIndex]);\n                    opIndex++;\n                }\n            }\n\n            _compensate(beneficiary, collected);\n        }\n    }\n\n    /// @inheritdoc IEntryPoint\n    function getUserOpHash(\n        PackedUserOperation calldata userOp\n    ) public view returns (bytes32) {\n        bytes32 overrideInitCodeHash = Eip7702Support._getEip7702InitCodeHashOverride(userOp);\n        return\n            MessageHashUtils.toTypedDataHash(getDomainSeparatorV4(), userOp.hash(overrideInitCodeHash));\n    }\n\n    /// @inheritdoc IEntryPoint\n    function getSenderAddress(bytes calldata initCode) external {\n        address sender = senderCreator().createSender(initCode);\n        revert SenderAddressResult(sender);\n    }\n\n    /// @inheritdoc IEntryPoint\n    function senderCreator() public view virtual returns (ISenderCreator) {\n        return _senderCreator;\n    }\n\n    /// @inheritdoc IEntryPoint\n    function delegateAndRevert(address target, bytes calldata data) external {\n        (bool success, bytes memory ret) = target.delegatecall(data);\n        revert DelegateAndRevert(success, ret);\n    }\n\n    function getPackedUserOpTypeHash() external pure returns (bytes32) {\n        return UserOperationLib.PACKED_USEROP_TYPEHASH;\n    }\n\n    function getDomainSeparatorV4() public virtual view returns (bytes32) {\n        return _domainSeparatorV4();\n    }\n\n    /// @inheritdoc IERC165\n    function supportsInterface(bytes4 interfaceId) public view virtual override returns (bool) {\n        // note: solidity \"type(IEntryPoint).interfaceId\" is without inherited methods but we want to check everything\n        return interfaceId == (type(IEntryPoint).interfaceId ^ type(IStakeManager).interfaceId ^ type(INonceManager).interfaceId) ||\n        interfaceId == type(IEntryPoint).interfaceId ||\n        interfaceId == type(IStakeManager).interfaceId ||\n        interfaceId == type(INonceManager).interfaceId ||\n            super.supportsInterface(interfaceId);\n    }\n\n    /**\n     * Compensate the caller's beneficiary address with the collected fees of all UserOperations.\n     * @param beneficiary - The address to receive the fees.\n     * @param amount      - Amount to transfer.\n     */\n    function _compensate(address payable beneficiary, uint256 amount) internal virtual {\n        require(beneficiary != address(0), \"AA90 invalid beneficiary\");\n        (bool success,) = beneficiary.call{value: amount}(\"\");\n        require(success, \"AA91 failed send to beneficiary\");\n    }\n\n    /**\n     * Execute a user operation.\n     * @param opIndex    - Index into the opInfo array.\n     * @param userOp     - The userOp to execute.\n     * @param opInfo     - The opInfo filled by validatePrepayment for this userOp.\n     * @return collected - The total amount this userOp paid.\n     */\n    function _executeUserOp(\n        uint256 opIndex,\n        PackedUserOperation calldata userOp,\n        UserOpInfo memory opInfo\n    )\n    internal virtual\n    returns (uint256 collected) {\n        uint256 preGas = gasleft();\n        bytes memory context = _getMemoryBytesFromOffset(opInfo.contextOffset);\n        bool success;\n        {\n            uint256 saveFreePtr = _getFreePtr();\n            bytes calldata callData = userOp.callData;\n            bytes memory innerCall;\n            bytes4 methodSig;\n            assembly (\"memory-safe\") {\n                let len := callData.length\n                if gt(len, 3) {\n                    methodSig := calldataload(callData.offset)\n                }\n            }\n            if (methodSig == IAccountExecute.executeUserOp.selector) {\n                bytes memory executeUserOp = abi.encodeCall(IAccountExecute.executeUserOp, (userOp, opInfo.userOpHash));\n                innerCall = abi.encodeCall(this.innerHandleOp, (executeUserOp, opInfo, context));\n            } else\n            {\n                innerCall = abi.encodeCall(this.innerHandleOp, (callData, opInfo, context));\n            }\n            assembly (\"memory-safe\") {\n                success := call(gas(), address(), 0, add(innerCall, 0x20), mload(innerCall), 0, 32)\n                collected := mload(0)\n            }\n            _restoreFreePtr(saveFreePtr);\n        }\n        if (!success) {\n            bytes32 innerRevertCode;\n            assembly (\"memory-safe\") {\n                let len := returndatasize()\n                if eq(32, len) {\n                    returndatacopy(0, 0, 32)\n                    innerRevertCode := mload(0)\n                }\n            }\n            if (innerRevertCode == INNER_OUT_OF_GAS) {\n                // handleOps was called with gas limit too low. abort entire bundle.\n                // can only be caused by bundler (leaving not enough gas for inner call)\n                revert FailedOp(opIndex, \"AA95 out of gas\");\n            } else if (innerRevertCode == INNER_REVERT_LOW_PREFUND) {\n                // innerCall reverted on prefund too low. treat entire prefund as \"gas cost\"\n                uint256 actualGas = preGas - gasleft() + opInfo.preOpGas;\n                uint256 actualGasCost = opInfo.prefund;\n                _emitPrefundTooLow(opInfo);\n                _emitUserOperationEvent(opInfo, false, actualGasCost, actualGas);\n                collected = actualGasCost;\n            } else {\n                uint256 freePtr = _getFreePtr();\n                emit PostOpRevertReason(\n                    opInfo.userOpHash,\n                    opInfo.mUserOp.sender,\n                    opInfo.mUserOp.nonce,\n                    Exec.getReturnData(REVERT_REASON_MAX_LEN)\n                );\n                _restoreFreePtr(freePtr);\n\n                uint256 actualGas = preGas - gasleft() + opInfo.preOpGas;\n                collected = _postExecution(\n                    IPaymaster.PostOpMode.postOpReverted,\n                    opInfo,\n                    context,\n                    actualGas\n                );\n            }\n        }\n    }\n\n    /**\n     * Emit the UserOperationEvent for the given UserOperation.\n     *\n     * @param opInfo         - The details of the current UserOperation.\n     * @param success        - Whether the execution of the UserOperation has succeeded or not.\n     * @param actualGasCost  - The actual cost of the consumed gas charged from the sender or the paymaster.\n     * @param actualGas      - The actual amount of gas used.\n     */\n    function _emitUserOperationEvent(UserOpInfo memory opInfo, bool success, uint256 actualGasCost, uint256 actualGas) internal virtual {\n        emit UserOperationEvent(\n            opInfo.userOpHash,\n            opInfo.mUserOp.sender,\n            opInfo.mUserOp.paymaster,\n            opInfo.mUserOp.nonce,\n            success,\n            actualGasCost,\n            actualGas\n        );\n    }\n\n    /**\n     * Emit the UserOperationPrefundTooLow event for the given UserOperation.\n     *\n     * @param opInfo - The details of the current UserOperation.\n     */\n    function _emitPrefundTooLow(UserOpInfo memory opInfo) internal virtual {\n        emit UserOperationPrefundTooLow(\n            opInfo.userOpHash,\n            opInfo.mUserOp.sender,\n            opInfo.mUserOp.nonce\n        );\n    }\n\n    /**\n     * Iterate over calldata PackedUserOperation array and perform account and paymaster validation.\n     * @notice UserOpInfo is a global array of all UserOps while PackedUserOperation is grouped per aggregator.\n     *\n     * @param ops - an array of UserOps to be validated\n     * @param opInfos - an array of UserOp metadata being read and filled in during this function's execution\n     * @param expectedAggregator - an address of the aggregator specified for a given UserOp if any, or address(0)\n     * @param opIndexOffset - an offset for the index between 'ops' and 'opInfos' arrays, see the notice.\n     * @return opsLen - processed UserOps (length of \"ops\" array)\n     */\n    function _iterateValidationPhase(\n        PackedUserOperation[] calldata ops,\n        UserOpInfo[] memory opInfos,\n        address expectedAggregator,\n        uint256 opIndexOffset\n    ) internal returns (uint256 opsLen){\n        unchecked {\n            opsLen = ops.length;\n            for (uint256 i = 0; i < opsLen; i++) {\n                UserOpInfo memory opInfo = opInfos[opIndexOffset + i];\n                (\n                    uint256 validationData,\n                    uint256 pmValidationData\n                ) = _validatePrepayment(opIndexOffset + i, ops[i], opInfo);\n                _validateAccountAndPaymasterValidationData(\n                    opIndexOffset + i,\n                    validationData,\n                    pmValidationData,\n                    expectedAggregator\n                );\n            }\n        }\n    }\n\n    /**\n     * A memory copy of UserOp static fields only.\n     * Excluding: callData, initCode and signature. Replacing paymasterAndData with paymaster.\n     */\n    struct MemoryUserOp {\n        address sender;\n        uint256 nonce;\n        uint256 verificationGasLimit;\n        uint256 callGasLimit;\n        uint256 paymasterVerificationGasLimit;\n        uint256 paymasterPostOpGasLimit;\n        uint256 preVerificationGas;\n        address paymaster;\n        uint256 maxFeePerGas;\n        uint256 maxPriorityFeePerGas;\n    }\n\n    struct UserOpInfo {\n        MemoryUserOp mUserOp;\n        bytes32 userOpHash;\n        uint256 prefund;\n        uint256 contextOffset;\n        uint256 preOpGas;\n    }\n\n    /**\n     * Inner function to handle a UserOperation.\n     * Must be declared \"external\" to open a call context, but it can only be called by handleOps.\n     * @param callData - The callData to execute.\n     * @param opInfo   - The UserOpInfo struct.\n     * @param context  - The context bytes.\n     * @return actualGasCost - the actual cost in eth this UserOperation paid for gas\n     */\n    function innerHandleOp(\n        bytes memory callData,\n        UserOpInfo memory opInfo,\n        bytes calldata context\n    ) external returns (uint256 actualGasCost) {\n        uint256 preGas = gasleft();\n        require(msg.sender == address(this), \"AA92 internal call only\");\n        MemoryUserOp memory mUserOp = opInfo.mUserOp;\n\n        uint256 callGasLimit = mUserOp.callGasLimit;\n        unchecked {\n        // handleOps was called with gas limit too low. abort entire bundle.\n            if (\n                gasleft() * 63 / 64 <\n                callGasLimit +\n                mUserOp.paymasterPostOpGasLimit +\n                INNER_GAS_OVERHEAD\n            ) {\n                assembly (\"memory-safe\") {\n                    mstore(0, INNER_OUT_OF_GAS)\n                    revert(0, 32)\n                }\n            }\n        }\n\n        IPaymaster.PostOpMode mode = IPaymaster.PostOpMode.opSucceeded;\n        if (callData.length > 0) {\n            bool success = Exec.call(mUserOp.sender, 0, callData, callGasLimit);\n            if (!success) {\n                uint256 freePtr = _getFreePtr();\n                bytes memory result = Exec.getReturnData(REVERT_REASON_MAX_LEN);\n                if (result.length > 0) {\n                    emit UserOperationRevertReason(\n                        opInfo.userOpHash,\n                        mUserOp.sender,\n                        mUserOp.nonce,\n                        result\n                    );\n                }\n                _restoreFreePtr(freePtr);\n                mode = IPaymaster.PostOpMode.opReverted;\n            }\n        }\n\n        unchecked {\n            uint256 actualGas = preGas - gasleft() + opInfo.preOpGas;\n            return _postExecution(mode, opInfo, context, actualGas);\n        }\n    }\n\n    /**\n     * Copy general fields from userOp into the memory opInfo structure.\n     * @param userOp  - The user operation.\n     * @param mUserOp - The memory user operation.\n     */\n    function _copyUserOpToMemory(\n        PackedUserOperation calldata userOp,\n        MemoryUserOp memory mUserOp\n    ) internal virtual pure {\n        mUserOp.sender = userOp.sender;\n        mUserOp.nonce = userOp.nonce;\n        (mUserOp.verificationGasLimit, mUserOp.callGasLimit) = UserOperationLib.unpackUints(userOp.accountGasLimits);\n        mUserOp.preVerificationGas = userOp.preVerificationGas;\n        (mUserOp.maxPriorityFeePerGas, mUserOp.maxFeePerGas) = UserOperationLib.unpackUints(userOp.gasFees);\n        bytes calldata paymasterAndData = userOp.paymasterAndData;\n        if (paymasterAndData.length > 0) {\n            require(\n                paymasterAndData.length >= UserOperationLib.PAYMASTER_DATA_OFFSET,\n                \"AA93 invalid paymasterAndData\"\n            );\n            address paymaster;\n            (paymaster, mUserOp.paymasterVerificationGasLimit, mUserOp.paymasterPostOpGasLimit) = UserOperationLib.unpackPaymasterStaticFields(paymasterAndData);\n            require(paymaster != address(0), \"AA98 invalid paymaster\");\n            mUserOp.paymaster = paymaster;\n        }\n    }\n\n    /**\n     * Get the required prefunded gas fee amount for an operation.\n     *\n     * @param mUserOp - The user operation in memory.\n     * @return requiredPrefund - the required amount.\n     */\n    function _getRequiredPrefund(\n        MemoryUserOp memory mUserOp\n    ) internal virtual pure returns (uint256 requiredPrefund) {\n        unchecked {\n            uint256 requiredGas = mUserOp.verificationGasLimit +\n                            mUserOp.callGasLimit +\n                            mUserOp.paymasterVerificationGasLimit +\n                            mUserOp.paymasterPostOpGasLimit +\n                            mUserOp.preVerificationGas;\n\n            requiredPrefund = requiredGas * mUserOp.maxFeePerGas;\n        }\n    }\n\n    /**\n     * Create sender smart contract account if init code is provided.\n     * @param opIndex  - The operation index.\n     * @param opInfo   - The operation info.\n     * @param initCode - The init code for the smart contract account.\n     */\n    function _createSenderIfNeeded(\n        uint256 opIndex,\n        UserOpInfo memory opInfo,\n        bytes calldata initCode\n    ) internal virtual {\n        if (initCode.length != 0) {\n            address sender = opInfo.mUserOp.sender;\n            if (Eip7702Support._isEip7702InitCode(initCode)) {\n                if (initCode.length > 20) {\n                    // Already validated it is an EIP-7702 delegate (and hence, already has code) - see getUserOpHash()\n                    // Note: Can be called multiple times as long as an appropriate initCode is supplied\n                    senderCreator().initEip7702Sender{\n                            gas: opInfo.mUserOp.verificationGasLimit\n                        }(sender, initCode[20 :]);\n                }\n                return;\n            }\n            if (sender.code.length != 0)\n                revert FailedOp(opIndex, \"AA10 sender already constructed\");\n            if (initCode.length < 20) {\n                revert FailedOp(opIndex, \"AA99 initCode too small\");\n            }\n            address sender1 = senderCreator().createSender{\n                    gas: opInfo.mUserOp.verificationGasLimit\n                }(initCode);\n            if (sender1 == address(0))\n                revert FailedOp(opIndex, \"AA13 initCode failed or OOG\");\n            if (sender1 != sender)\n                revert FailedOp(opIndex, \"AA14 initCode must return sender\");\n            if (sender1.code.length == 0)\n                revert FailedOp(opIndex, \"AA15 initCode must create sender\");\n            address factory = address(bytes20(initCode[0 : 20]));\n            emit AccountDeployed(\n                opInfo.userOpHash,\n                sender,\n                factory,\n                opInfo.mUserOp.paymaster\n            );\n        }\n    }\n\n    /**\n     * Call account.validateUserOp.\n     * Revert (with FailedOp) in case validateUserOp reverts, or account didn't send required prefund.\n     * Decrement account's deposit if needed.\n     * @param opIndex         - The operation index.\n     * @param op              - The user operation.\n     * @param opInfo          - The operation info.\n     * @param requiredPrefund - The required prefund amount.\n     * @return validationData - The account's validationData.\n     */\n    function _validateAccountPrepayment(\n        uint256 opIndex,\n        PackedUserOperation calldata op,\n        UserOpInfo memory opInfo,\n        uint256 requiredPrefund\n    )\n    internal virtual\n    returns (\n        uint256 validationData\n    )\n    {\n        unchecked {\n            MemoryUserOp memory mUserOp = opInfo.mUserOp;\n            address sender = mUserOp.sender;\n            _createSenderIfNeeded(opIndex, opInfo, op.initCode);\n            address paymaster = mUserOp.paymaster;\n            uint256 missingAccountFunds = 0;\n            if (paymaster == address(0)) {\n                uint256 bal = balanceOf(sender);\n                missingAccountFunds = bal > requiredPrefund\n                    ? 0\n                    : requiredPrefund - bal;\n            }\n            validationData = _callValidateUserOp(opIndex, op, opInfo, missingAccountFunds);\n            if (paymaster == address(0)) {\n                if (!_tryDecrementDeposit(sender, requiredPrefund)) {\n                    revert FailedOp(opIndex, \"AA21 didn't pay prefund\");\n                }\n            }\n        }\n    }\n\n    /**\n     * Make a call to the sender.validateUserOp() function.\n     * Handle wrong output size by reverting with a FailedOp error.\n     *\n     * @param opIndex - index of the UserOperation in the bundle.\n     * @param op - the packed UserOperation object.\n     * @param opInfo - the in-memory UserOperation information.\n     * @param missingAccountFunds - the amount of deposit the account has to make to cover the UserOperation gas.\n     */\n    function _callValidateUserOp(\n        uint256 opIndex,\n        PackedUserOperation calldata op,\n        UserOpInfo memory opInfo,\n        uint256 missingAccountFunds\n    )\n    internal virtual returns (uint256 validationData) {\n        uint256 gasLimit = opInfo.mUserOp.verificationGasLimit;\n        address sender = opInfo.mUserOp.sender;\n        bool success;\n        {\n            uint256 saveFreePtr = _getFreePtr();\n            bytes memory callData = abi.encodeCall(IAccount.validateUserOp, (op, opInfo.userOpHash, missingAccountFunds));\n            assembly (\"memory-safe\"){\n                success := call(gasLimit, sender, 0, add(callData, 0x20), mload(callData), 0, 32)\n                validationData := mload(0)\n            // any return data size other than 32 is considered failure\n                if iszero(eq(returndatasize(), 32)) {\n                    success := 0\n                }\n            }\n            _restoreFreePtr(saveFreePtr);\n        }\n        if (!success) {\n            if (sender.code.length == 0) {\n                revert FailedOp(opIndex, \"AA20 account not deployed\");\n            } else {\n                revert FailedOpWithRevert(opIndex, \"AA23 reverted\", Exec.getReturnData(REVERT_REASON_MAX_LEN));\n            }\n        }\n    }\n\n    /**\n     * In case the request has a paymaster:\n     *  - Validate paymaster has enough deposit.\n     *  - Call paymaster.validatePaymasterUserOp.\n     *  - Revert with proper FailedOp in case paymaster reverts.\n     *  - Decrement paymaster's deposit.\n     * @param opIndex                            - The operation index.\n     * @param op                                 - The user operation.\n     * @param opInfo                             - The operation info.\n     * @return context                           - The Paymaster-provided value to be passed to the 'postOp' function later\n     * @return validationData                    - The Paymaster's validationData.\n     */\n    function _validatePaymasterPrepayment(\n        uint256 opIndex,\n        PackedUserOperation calldata op,\n        UserOpInfo memory opInfo\n    ) internal virtual returns (bytes memory context, uint256 validationData) {\n        unchecked {\n            uint256 preGas = gasleft();\n            MemoryUserOp memory mUserOp = opInfo.mUserOp;\n            address paymaster = mUserOp.paymaster;\n            uint256 requiredPreFund = opInfo.prefund;\n            if (!_tryDecrementDeposit(paymaster, requiredPreFund)) {\n                revert FailedOp(opIndex, \"AA31 paymaster deposit too low\");\n            }\n            uint256 pmVerificationGasLimit = mUserOp.paymasterVerificationGasLimit;\n            (context, validationData) = _callValidatePaymasterUserOp(opIndex, op, opInfo);\n            if (preGas - gasleft() > pmVerificationGasLimit) {\n                revert FailedOp(opIndex, \"AA36 over paymasterVerificationGasLimit\");\n            }\n        }\n    }\n\n    function _callValidatePaymasterUserOp(\n        uint256 opIndex,\n        PackedUserOperation calldata op,\n        UserOpInfo memory opInfo\n    ) internal returns (bytes memory context, uint256 validationData)  {\n        uint256 freePtr = _getFreePtr();\n        bytes memory validatePaymasterCall = abi.encodeCall(\n            IPaymaster.validatePaymasterUserOp,\n            (op, opInfo.userOpHash, opInfo.prefund)\n        );\n        address paymaster = opInfo.mUserOp.paymaster;\n        uint256 paymasterVerificationGasLimit = opInfo.mUserOp.paymasterVerificationGasLimit;\n        bool success;\n        uint256 contextLength;\n        uint256 contextOffset;\n        uint256 maxContextLength;\n        uint256 len;\n        assembly (\"memory-safe\") {\n            success := call(paymasterVerificationGasLimit, paymaster, 0, add(validatePaymasterCall, 0x20), mload(validatePaymasterCall), 0, 0)\n            len := returndatasize()\n            // return data from validatePaymasterUserOp is (bytes context, validationData)\n            // encoded as:\n            // 32 bytes offset of context (always 64)\n            // 32 bytes of validationData\n            // 32 bytes of context length\n            // context data (rounded up, to 32 bytes boundary)\n            // so entire buffer size is (at least) 96+content.length.\n            //\n            // we use freePtr, fetched before calling encodeCall, as return data pointer.\n            // this way we reuse that memory without unnecessary memory expansion\n            returndatacopy(freePtr, 0, len)\n            validationData := mload(add(freePtr, 32))\n            contextOffset := mload(freePtr)\n            maxContextLength := sub(len, 96)\n            context := add(freePtr, 64)\n            contextLength := mload(context)\n        }\n\n        unchecked {\n            if (!success || contextOffset != 64 || contextLength + 31 < maxContextLength) {\n                revert FailedOpWithRevert(opIndex, \"AA33 reverted\", Exec.getReturnData(REVERT_REASON_MAX_LEN));\n            }\n        }\n        finalizeAllocation(freePtr, len);\n    }\n\n    /**\n     * Revert if either account validationData or paymaster validationData is expired.\n     * @param opIndex                 - The operation index.\n     * @param validationData          - The account validationData.\n     * @param paymasterValidationData - The paymaster validationData.\n     * @param expectedAggregator      - The expected aggregator.\n     */\n    function _validateAccountAndPaymasterValidationData(\n        uint256 opIndex,\n        uint256 validationData,\n        uint256 paymasterValidationData,\n        address expectedAggregator\n    ) internal virtual view {\n        (address aggregator, bool outOfTimeRange) = _getValidationData(\n            validationData\n        );\n        if (expectedAggregator != aggregator) {\n            revert FailedOp(opIndex, \"AA24 signature error\");\n        }\n        if (outOfTimeRange) {\n            revert FailedOp(opIndex, \"AA22 expired or not due\");\n        }\n        // pmAggregator is not a real signature aggregator: we don't have logic to handle it as address.\n        // Non-zero address means that the paymaster fails due to some signature check (which is ok only during estimation).\n        address pmAggregator;\n        (pmAggregator, outOfTimeRange) = _getValidationData(\n            paymasterValidationData\n        );\n        if (pmAggregator != address(0)) {\n            revert FailedOp(opIndex, \"AA34 signature error\");\n        }\n        if (outOfTimeRange) {\n            revert FailedOp(opIndex, \"AA32 paymaster expired or not due\");\n        }\n    }\n\n    /**\n     * Parse validationData into its components.\n     * @param validationData - The packed validation data (sigFailed, validAfter, validUntil).\n     * @return aggregator the aggregator of the validationData\n     * @return outOfTimeRange true if current time is outside the time range of this validationData.\n     */\n    function _getValidationData(\n        uint256 validationData\n    ) internal virtual view returns (address aggregator, bool outOfTimeRange) {\n        if (validationData == 0) {\n            return (address(0), false);\n        }\n        ValidationData memory data = _parseValidationData(validationData);\n        // solhint-disable-next-line not-rely-on-time\n        outOfTimeRange = block.timestamp > data.validUntil || block.timestamp <= data.validAfter;\n        aggregator = data.aggregator;\n    }\n\n    /**\n     * Validate account and paymaster (if defined) and\n     * also make sure total validation doesn't exceed verificationGasLimit.\n     * This method is called off-chain (simulateValidation()) and on-chain (from handleOps)\n     * @param opIndex    - The index of this userOp into the \"opInfos\" array.\n     * @param userOp     - The packed calldata UserOperation structure to validate.\n     * @param outOpInfo  - The empty unpacked in-memory UserOperation structure that will be filled in here.\n     *\n     * @return validationData          - The account's validationData.\n     * @return paymasterValidationData - The paymaster's validationData.\n     */\n    function _validatePrepayment(\n        uint256 opIndex,\n        PackedUserOperation calldata userOp,\n        UserOpInfo memory outOpInfo\n    )\n    internal virtual\n    returns (uint256 validationData, uint256 paymasterValidationData)\n    {\n        uint256 preGas = gasleft();\n        MemoryUserOp memory mUserOp = outOpInfo.mUserOp;\n        _copyUserOpToMemory(userOp, mUserOp);\n\n        // getUserOpHash uses temporary allocations, no required after it returns\n        uint256 freePtr = _getFreePtr();\n        outOpInfo.userOpHash = getUserOpHash(userOp);\n        _restoreFreePtr(freePtr);\n\n        // Validate all numeric values in userOp are well below 128 bit, so they can safely be added\n        // and multiplied without causing overflow.\n        uint256 verificationGasLimit = mUserOp.verificationGasLimit;\n        uint256 maxGasValues = mUserOp.preVerificationGas |\n                    verificationGasLimit |\n                        mUserOp.callGasLimit |\n                        mUserOp.paymasterVerificationGasLimit |\n                        mUserOp.paymasterPostOpGasLimit |\n                        mUserOp.maxFeePerGas |\n                        mUserOp.maxPriorityFeePerGas;\n        require(maxGasValues <= type(uint120).max, FailedOp(opIndex, \"AA94 gas values overflow\"));\n\n        uint256 requiredPreFund = _getRequiredPrefund(mUserOp);\n        outOpInfo.prefund = requiredPreFund;\n        validationData = _validateAccountPrepayment(\n            opIndex,\n            userOp,\n            outOpInfo,\n            requiredPreFund\n        );\n\n        require(\n            _validateAndUpdateNonce(mUserOp.sender, mUserOp.nonce),\n            FailedOp(opIndex, \"AA25 invalid account nonce\")\n        );\n\n        unchecked {\n            if (preGas - gasleft() > verificationGasLimit) {\n                revert FailedOp(opIndex, \"AA26 over verificationGasLimit\");\n            }\n        }\n\n        bytes memory context;\n        if (mUserOp.paymaster != address(0)) {\n            (context, paymasterValidationData) = _validatePaymasterPrepayment(\n                opIndex,\n                userOp,\n                outOpInfo\n            );\n        }\n        unchecked {\n            outOpInfo.contextOffset = _getOffsetOfMemoryBytes(context);\n            outOpInfo.preOpGas = preGas - gasleft() + userOp.preVerificationGas;\n        }\n    }\n\n    /**\n     * Process post-operation, called just after the callData is executed.\n     * If a paymaster is defined and its validation returned a non-empty context, its postOp is called.\n     * The excess amount is refunded to the account (or paymaster - if it was used in the request).\n     * @param mode      - Whether is called from innerHandleOp, or outside (postOpReverted).\n     * @param opInfo    - UserOp fields and info collected during validation.\n     * @param context   - The context returned in validatePaymasterUserOp.\n     * @param actualGas - The gas used so far by this user operation.\n     *\n     * @return actualGasCost - the actual cost in eth this UserOperation paid for gas\n     */\n    function _postExecution(\n        IPaymaster.PostOpMode mode,\n        UserOpInfo memory opInfo,\n        bytes memory context,\n        uint256 actualGas\n    ) internal virtual returns (uint256 actualGasCost) {\n        uint256 preGas = gasleft();\n        unchecked {\n            address refundAddress;\n            MemoryUserOp memory mUserOp = opInfo.mUserOp;\n            uint256 gasPrice = _getUserOpGasPrice(mUserOp);\n\n            address paymaster = mUserOp.paymaster;\n        // Calculating a penalty for unused execution gas\n            {\n                uint256 executionGasUsed = actualGas - opInfo.preOpGas;\n                // this check is required for the gas used within EntryPoint and not covered by explicit gas limits\n                actualGas += _getUnusedGasPenalty(executionGasUsed, mUserOp.callGasLimit);\n            }\n            uint256 postOpUnusedGasPenalty;\n            if (paymaster == address(0)) {\n                refundAddress = mUserOp.sender;\n            } else {\n                refundAddress = paymaster;\n                if (context.length > 0) {\n                    actualGasCost = actualGas * gasPrice;\n                    uint256 postOpPreGas = gasleft();\n                    if (mode != IPaymaster.PostOpMode.postOpReverted) {\n                        try IPaymaster(paymaster).postOp{\n                                gas: mUserOp.paymasterPostOpGasLimit\n                            }(mode, context, actualGasCost, gasPrice)\n                        // solhint-disable-next-line no-empty-blocks\n                        {} catch {\n                            bytes memory reason = Exec.getReturnData(REVERT_REASON_MAX_LEN);\n                            revert PostOpReverted(reason);\n                        }\n                    }\n                    // Calculating a penalty for unused postOp gas\n                    // note that if postOp is reverted, the maximum penalty (10% of postOpGasLimit) is charged.\n                    uint256 postOpGasUsed = postOpPreGas - gasleft();\n                    postOpUnusedGasPenalty = _getUnusedGasPenalty(postOpGasUsed, mUserOp.paymasterPostOpGasLimit);\n                }\n            }\n            actualGas += preGas - gasleft() + postOpUnusedGasPenalty;\n            actualGasCost = actualGas * gasPrice;\n            uint256 prefund = opInfo.prefund;\n            if (prefund < actualGasCost) {\n                if (mode == IPaymaster.PostOpMode.postOpReverted) {\n                    actualGasCost = prefund;\n                    _emitPrefundTooLow(opInfo);\n                    _emitUserOperationEvent(opInfo, false, actualGasCost, actualGas);\n                } else {\n                    assembly (\"memory-safe\") {\n                        mstore(0, INNER_REVERT_LOW_PREFUND)\n                        revert(0, 32)\n                    }\n                }\n            } else {\n                uint256 refund = prefund - actualGasCost;\n                _incrementDeposit(refundAddress, refund);\n                bool success = mode == IPaymaster.PostOpMode.opSucceeded;\n                _emitUserOperationEvent(opInfo, success, actualGasCost, actualGas);\n            }\n        } // unchecked\n    }\n\n    /**\n     * The gas price this UserOp agrees to pay.\n     * Relayer/block builder might submit the TX with higher priorityFee, but the user should not be affected.\n     * @param mUserOp - The userOp to get the gas price from.\n     */\n    function _getUserOpGasPrice(\n        MemoryUserOp memory mUserOp\n    ) internal view returns (uint256) {\n        unchecked {\n            uint256 maxFeePerGas = mUserOp.maxFeePerGas;\n            uint256 maxPriorityFeePerGas = mUserOp.maxPriorityFeePerGas;\n            return min(maxFeePerGas, maxPriorityFeePerGas + block.basefee);\n        }\n    }\n\n    /**\n     * The offset of the given bytes in memory.\n     * @param data - The bytes to get the offset of.\n     */\n    function _getOffsetOfMemoryBytes(\n        bytes memory data\n    ) internal pure returns (uint256 offset) {\n        assembly (\"memory-safe\") {\n            offset := data\n        }\n    }\n\n    /**\n     * The bytes in memory at the given offset.\n     * @param offset - The offset to get the bytes from.\n     */\n    function _getMemoryBytesFromOffset(\n        uint256 offset\n    ) internal pure returns (bytes memory data) {\n        assembly (\"memory-safe\") {\n            data := offset\n        }\n    }\n\n    /**\n     * save free memory pointer.\n     * save \"free memory\" pointer, so that it can be restored later using restoreFreePtr.\n     * This reduce unneeded memory expansion, and reduce memory expansion cost.\n     * NOTE: all dynamic allocations between saveFreePtr and restoreFreePtr MUST NOT be used after restoreFreePtr is called.\n     */\n    function _getFreePtr() internal pure returns (uint256 ptr) {\n        assembly (\"memory-safe\") {\n            ptr := mload(0x40)\n        }\n    }\n\n    /**\n     * restore free memory pointer.\n     * any allocated memory since saveFreePtr is cleared, and MUST NOT be accessed later.\n     */\n    function _restoreFreePtr(uint256 ptr) internal pure {\n        assembly (\"memory-safe\") {\n            mstore(0x40, ptr)\n        }\n    }\n\n    function _getUnusedGasPenalty(uint256 gasUsed, uint256 gasLimit) internal pure returns (uint256) {\n        unchecked {\n            if (gasLimit <= gasUsed + PENALTY_GAS_THRESHOLD) {\n                return 0;\n            }\n            uint256 unusedGas = gasLimit - gasUsed;\n            uint256 unusedGasPenalty = (unusedGas * UNUSED_GAS_PENALTY_PERCENT) / 100;\n            return unusedGasPenalty;\n        }\n    }\n}\n",
  "sourcePath": "@account-abstraction\\contracts\\core\\EntryPoint.sol",
  "compiler": {
    "name": "solc",
    "version": "0.8.28+commit.7893614a.Emscripten.clang"
  },
  "schemaVersion": "3.4.16",
  "updatedAt": "2025-06-05T05:05:53.765Z",
  "devdoc": {
    "custom:security-contact": "https://bounty.ethereum.org",
    "errors": {
      "FailedOp(uint256,string)": [
        {
          "params": {
            "opIndex": "- Index into the array of ops to the failed one (in simulateValidation, this is always zero).",
            "reason": "- Revert reason. The string starts with a unique code \"AAmn\",                  where \"m\" is \"1\" for factory, \"2\" for account and \"3\" for paymaster issues,                  so a failure can be attributed to the correct entity."
          }
        }
      ],
      "FailedOpWithRevert(uint256,string,bytes)": [
        {
          "details": "note that inner is truncated to 2048 bytes",
          "params": {
            "inner": "- data from inner cought revert reason",
            "opIndex": "- Index into the array of ops to the failed one (in simulateValidation, this is always zero).",
            "reason": "- Revert reason. see FailedOp(uint256,string), above"
          }
        }
      ],
      "ReentrancyGuardReentrantCall()": [
        {
          "details": "Unauthorized reentrant call."
        }
      ],
      "SignatureValidationFailed(address)": [
        {
          "params": {
            "aggregator": "The aggregator that failed to verify the signature"
          }
        }
      ]
    },
    "events": {
      "AccountDeployed(bytes32,address,address,address)": {
        "params": {
          "factory": "- The factory used to deploy this account (in the initCode)",
          "paymaster": "- The paymaster used by this UserOp",
          "sender": "- The account that is deployed",
          "userOpHash": "- The userOp that deployed this account. UserOperationEvent will follow."
        }
      },
      "EIP712DomainChanged()": {
        "details": "MAY be emitted to signal that the domain could have changed."
      },
      "PostOpRevertReason(bytes32,address,uint256,bytes)": {
        "params": {
          "nonce": "- The nonce used in the request.",
          "revertReason": "- The return bytes from the reverted call to \"postOp\".",
          "sender": "- The sender of this request.",
          "userOpHash": "- The request unique identifier."
        }
      },
      "SignatureAggregatorChanged(address)": {
        "params": {
          "aggregator": "- The aggregator used for the following UserOperationEvents."
        }
      },
      "UserOperationPrefundTooLow(bytes32,address,uint256)": {
        "params": {
          "nonce": "- The nonce used in the request.",
          "sender": "- The sender of this request.",
          "userOpHash": "- The request unique identifier."
        }
      },
      "UserOperationRevertReason(bytes32,address,uint256,bytes)": {
        "params": {
          "nonce": "- The nonce used in the request.",
          "revertReason": "- The return bytes from the reverted \"callData\" call.",
          "sender": "- The sender of this request.",
          "userOpHash": "- The request unique identifier."
        }
      }
    },
    "kind": "dev",
    "methods": {
      "addStake(uint32)": {
        "params": {
          "unstakeDelaySec": "- The new lock duration before the deposit can be withdrawn."
        }
      },
      "balanceOf(address)": {
        "params": {
          "account": "- The account to query."
        },
        "returns": {
          "_0": "- The deposit (for gas payment) of the account."
        }
      },
      "delegateAndRevert(address,bytes)": {
        "details": "calling this method, the EntryPoint will make a delegatecall to the given data, and report (via revert) the result.  The method always revert, so is only useful off-chain for dry run calls, in cases where state-override to replace  actual EntryPoint code is less convenient.",
        "params": {
          "data": "data to pass to target in a delegatecall",
          "target": "a target contract to make a delegatecall from entrypoint"
        }
      },
      "depositTo(address)": {
        "params": {
          "account": "- The account to add to."
        }
      },
      "eip712Domain()": {
        "details": "returns the fields and values that describe the domain separator used by this contract for EIP-712 signature."
      },
      "getDepositInfo(address)": {
        "params": {
          "account": "- The account to query."
        },
        "returns": {
          "info": "  - Full deposit information of given account."
        }
      },
      "getNonce(address,uint192)": {
        "params": {
          "key": "the high 192 bit of the nonce",
          "sender": "the account address"
        },
        "returns": {
          "nonce": "a full nonce to pass for next UserOp with this sender."
        }
      },
      "getSenderAddress(bytes)": {
        "params": {
          "initCode": "- The constructor code to be passed into the UserOperation."
        }
      },
      "getUserOpHash((address,uint256,bytes,bytes,bytes32,uint256,bytes32,bytes,bytes))": {
        "params": {
          "userOp": "- The user operation to generate the request ID for."
        },
        "returns": {
          "_0": "hash the hash of this UserOperation"
        }
      },
      "handleAggregatedOps(((address,uint256,bytes,bytes,bytes32,uint256,bytes32,bytes,bytes)[],address,bytes)[],address)": {
        "params": {
          "beneficiary": "- The address to receive the fees.",
          "opsPerAggregator": "- The operations to execute, grouped by aggregator (or address(0) for no-aggregator accounts)."
        }
      },
      "handleOps((address,uint256,bytes,bytes,bytes32,uint256,bytes32,bytes,bytes)[],address)": {
        "params": {
          "beneficiary": "- The address to receive the fees.",
          "ops": "- The operations to execute."
        }
      },
      "incrementNonce(uint192)": {
        "params": {
          "key": "- the \"nonce key\" to increment the \"nonce sequence\" for."
        }
      },
      "innerHandleOp(bytes,((address,uint256,uint256,uint256,uint256,uint256,uint256,address,uint256,uint256),bytes32,uint256,uint256,uint256),bytes)": {
        "params": {
          "callData": "- The callData to execute.",
          "context": "- The context bytes.",
          "opInfo": "- The UserOpInfo struct."
        },
        "returns": {
          "actualGasCost": "- the actual cost in eth this UserOperation paid for gas"
        }
      },
      "supportsInterface(bytes4)": {
        "details": "Returns true if this contract implements the interface defined by `interfaceId`. See the corresponding https://eips.ethereum.org/EIPS/eip-165#how-interfaces-are-identified[ERC section] to learn more about how these ids are created. This function call must use less than 30 000 gas."
      },
      "withdrawStake(address)": {
        "params": {
          "withdrawAddress": "- The address to send withdrawn value."
        }
      },
      "withdrawTo(address,uint256)": {
        "params": {
          "withdrawAddress": "- The address to send withdrawn value.",
          "withdrawAmount": "- The amount to withdraw."
        }
      }
    },
    "version": 1
  },
  "userdoc": {
    "errors": {
      "FailedOp(uint256,string)": [
        {
          "notice": "A custom revert error of handleOps andhandleAggregatedOps, to identify the offending op. Should be caught in off-chain handleOps/handleAggregatedOps simulation and not happen on-chain. Useful for mitigating DoS attempts against batchers or for troubleshooting of factory/account/paymaster reverts. NOTE: If simulateValidation passes successfully, there should be no reason for handleOps to fail on it."
        }
      ],
      "FailedOpWithRevert(uint256,string,bytes)": [
        {
          "notice": "A custom revert error of handleOps and handleAggregatedOps, to report a revert by account or paymaster."
        }
      ],
      "SignatureValidationFailed(address)": [
        {
          "notice": "Error case when a signature aggregator fails to verify the aggregated signature it had created."
        }
      ]
    },
    "events": {
      "AccountDeployed(bytes32,address,address,address)": {
        "notice": "Account \"sender\" was deployed."
      },
      "BeforeExecution()": {
        "notice": "An event emitted by handleOps() and handleAggregatedOps(), before starting the execution loop. Any event emitted before this event, is part of the validation."
      },
      "PostOpRevertReason(bytes32,address,uint256,bytes)": {
        "notice": "An event emitted if the UserOperation Paymaster's \"postOp\" call reverted with non-zero length."
      },
      "SignatureAggregatorChanged(address)": {
        "notice": "Signature aggregator used by the following UserOperationEvents within this bundle."
      },
      "UserOperationPrefundTooLow(bytes32,address,uint256)": {
        "notice": "UserOp consumed more than prefund. The UserOperation is reverted, and no refund is made."
      },
      "UserOperationRevertReason(bytes32,address,uint256,bytes)": {
        "notice": "An event emitted if the UserOperation \"callData\" reverted with non-zero length."
      }
    },
    "kind": "user",
    "methods": {
      "addStake(uint32)": {
        "notice": "Add to the account's stake - amount and delay any pending unstake is first cancelled."
      },
      "balanceOf(address)": {
        "notice": "Get account balance."
      },
      "delegateAndRevert(address,bytes)": {
        "notice": "Helper method for dry-run testing."
      },
      "depositTo(address)": {
        "notice": "Add to the deposit of the given account."
      },
      "getDepositInfo(address)": {
        "notice": "Get deposit info."
      },
      "getNonce(address,uint192)": {
        "notice": "Return the next nonce for this sender. Within a given key, the nonce values are sequenced (starting with zero, and incremented by one on each userop) But UserOp with different keys can come with arbitrary order."
      },
      "getSenderAddress(bytes)": {
        "notice": "Get counterfactual sender address. Calculate the sender contract address that will be generated by the initCode and salt in the UserOperation. This method always revert, and returns the address in SenderAddressResult error.this method cannot be used for EIP-7702 derived contracts."
      },
      "getUserOpHash((address,uint256,bytes,bytes,bytes32,uint256,bytes32,bytes,bytes))": {
        "notice": "Generate a request Id - unique identifier for this request. The request ID is a hash over the content of the userOp (except the signature), entrypoint address, chainId and (optionally) 7702 delegate address"
      },
      "handleAggregatedOps(((address,uint256,bytes,bytes,bytes32,uint256,bytes32,bytes,bytes)[],address,bytes)[],address)": {
        "notice": "Execute a batch of UserOperation with Aggregators"
      },
      "handleOps((address,uint256,bytes,bytes,bytes32,uint256,bytes32,bytes,bytes)[],address)": {
        "notice": "Execute a batch of UserOperations. No signature aggregator is used. If any account requires an aggregator (that is, it returned an aggregator when performing simulateValidation), then handleAggregatedOps() must be used instead."
      },
      "incrementNonce(uint192)": {
        "notice": "Manually increment the nonce of the sender. This method is exposed just for completeness.. Account does NOT need to call it, neither during validation, nor elsewhere, as the EntryPoint will update the nonce regardless. Possible use-case is call it with various keys to \"initialize\" their nonces to one, so that future UserOperations will not pay extra for the first transaction with a given key."
      },
      "innerHandleOp(bytes,((address,uint256,uint256,uint256,uint256,uint256,uint256,address,uint256,uint256),bytes32,uint256,uint256,uint256),bytes)": {
        "notice": "Inner function to handle a UserOperation. Must be declared \"external\" to open a call context, but it can only be called by handleOps."
      },
      "nonceSequenceNumber(address,uint192)": {
        "notice": "The next valid sequence number for a given nonce key."
      },
      "senderCreator()": {
        "notice": "Retrieves the immutable SenderCreator contract which is responsible for deployment of sender contracts."
      },
      "unlockStake()": {
        "notice": "Attempt to unlock the stake. The value can be withdrawn (using withdrawStake) after the unstake delay."
      },
      "withdrawStake(address)": {
        "notice": "Withdraw from the (unlocked) stake. Must first call unlockStake and wait for the unstakeDelay to pass."
      },
      "withdrawTo(address,uint256)": {
        "notice": "Withdraw from the deposit."
      }
    },
    "notice": "Account-Abstraction (EIP-4337) singleton EntryPoint v0.8 implementation. Only one instance required on each chain.",
    "version": 1
  }
}