{
  "contractName": "Migrations",
  "abi": [
    {
      "inputs": [],
      "stateMutability": "nonpayable",
      "type": "constructor"
    },
    {
      "inputs": [],
      "name": "lastCompletedMigration",
      "outputs": [
        {
          "internalType": "uint256",
          "name": "",
          "type": "uint256"
        }
      ],
      "stateMutability": "view",
      "type": "function"
    },
    {
      "inputs": [],
      "name": "owner",
      "outputs": [
        {
          "internalType": "address",
          "name": "",
          "type": "address"
        }
      ],
      "stateMutability": "view",
      "type": "function"
    },
    {
      "inputs": [
        {
          "internalType": "uint256",
          "name": "completed",
          "type": "uint256"
        }
      ],
      "name": "setCompleted",
      "outputs": [],
      "stateMutability": "nonpayable",
      "type": "function"
    }
  ],
  "bytecode": "0x6080604052348015600e575f5ffd5b505f80546001600160a01b0319163317905561014d8061002d5f395ff3fe608060405234801561000f575f5ffd5b506004361061003f575f3560e01c80638da5cb5b14610043578063fbdbad3c14610072578063fdacd57614610089575b5f5ffd5b5f54610055906001600160a01b031681565b6040516001600160a01b0390911681526020015b60405180910390f35b61007b60015481565b604051908152602001610069565b61009c610097366004610100565b61009e565b005b5f546001600160a01b031633146100fb5760405162461bcd60e51b815260206004820152601c60248201527f4f6e6c79206f776e65722063616e2073657420636f6d706c6574656400000000604482015260640160405180910390fd5b600155565b5f60208284031215610110575f5ffd5b503591905056fea2646970667358221220aa768f93a37182af7813ef7b167cc3c3030a97f3dd97b6c06d24a24ff0442c0664736f6c634300081c0033",
  "immutableReferences": {},
  "source": "// SPDX-License-Identifier: MIT\r\npragma solidity ^0.8.20;\r\n\r\ncontract Migrations {\r\n    address public owner;\r\n    uint public lastCompletedMigration;\r\n\r\n    constructor() {\r\n        owner = msg.sender;\r\n    }\r\n\r\n    function setCompleted(uint completed) public {\r\n        require(msg.sender == owner, \"Only owner can set completed\");\r\n        lastCompletedMigration = completed;\r\n    }\r\n}\r\n\r\n",
  "sourcePath": "C:\\Users\\ECON\\OneDrive\\Desktop\\Biconomy clone\\contracts\\contracts\\Migrations.sol",
  "compiler": {
    "name": "solc",
    "version": "0.8.28+commit.7893614a.Emscripten.clang"
  },
  "schemaVersion": "3.4.16",
  "updatedAt": "2025-06-05T05:05:53.931Z",
  "devdoc": {
    "kind": "dev",
    "methods": {},
    "version": 1
  },
  "userdoc": {
    "kind": "user",
    "methods": {},
    "version": 1
  }
}