{
  "contractName": "Paymaster",
  "abi": [
    {
      "inputs": [
        {
          "internalType": "contract IEntryPoint",
          "name": "_entryPoint",
          "type": "address"
        }
      ],
      "stateMutability": "nonpayable",
      "type": "constructor"
    },
    {
      "inputs": [
        {
          "internalType": "address",
          "name": "owner",
          "type": "address"
        }
      ],
      "name": "OwnableInvalidOwner",
      "type": "error"
    },
    {
      "inputs": [
        {
          "internalType": "address",
          "name": "account",
          "type": "address"
        }
      ],
      "name": "OwnableUnauthorizedAccount",
      "type": "error"
    },
    {
      "anonymous": false,
      "inputs": [
        {
          "indexed": true,
          "internalType": "address",
          "name": "previousOwner",
          "type": "address"
        },
        {
          "indexed": true,
          "internalType": "address",
          "name": "newOwner",
          "type": "address"
        }
      ],
      "name": "OwnershipTransferStarted",
      "type": "event"
    },
    {
      "anonymous": false,
      "inputs": [
        {
          "indexed": true,
          "internalType": "address",
          "name": "previousOwner",
          "type": "address"
        },
        {
          "indexed": true,
          "internalType": "address",
          "name": "newOwner",
          "type": "address"
        }
      ],
      "name": "OwnershipTransferred",
      "type": "event"
    },
    {
      "anonymous": false,
      "inputs": [
        {
          "indexed": true,
          "internalType": "address",
          "name": "sender",
          "type": "address"
        }
      ],
      "name": "Revoked",
      "type": "event"
    },
    {
      "anonymous": false,
      "inputs": [
        {
          "indexed": true,
          "internalType": "address",
          "name": "sender",
          "type": "address"
        }
      ],
      "name": "Whitelisted",
      "type": "event"
    },
    {
      "inputs": [],
      "name": "acceptOwnership",
      "outputs": [],
      "stateMutability": "nonpayable",
      "type": "function"
    },
    {
      "inputs": [
        {
          "internalType": "uint32",
          "name": "unstakeDelaySec",
          "type": "uint32"
        }
      ],
      "name": "addStake",
      "outputs": [],
      "stateMutability": "payable",
      "type": "function"
    },
    {
      "inputs": [],
      "name": "deposit",
      "outputs": [],
      "stateMutability": "payable",
      "type": "function"
    },
    {
      "inputs": [],
      "name": "entryPoint",
      "outputs": [
        {
          "internalType": "contract IEntryPoint",
          "name": "",
          "type": "address"
        }
      ],
      "stateMutability": "view",
      "type": "function"
    },
    {
      "inputs": [],
      "name": "getDeposit",
      "outputs": [
        {
          "internalType": "uint256",
          "name": "",
          "type": "uint256"
        }
      ],
      "stateMutability": "view",
      "type": "function"
    },
    {
      "inputs": [],
      "name": "owner",
      "outputs": [
        {
          "internalType": "address",
          "name": "",
          "type": "address"
        }
      ],
      "stateMutability": "view",
      "type": "function"
    },
    {
      "inputs": [],
      "name": "pendingOwner",
      "outputs": [
        {
          "internalType": "address",
          "name": "",
          "type": "address"
        }
      ],
      "stateMutability": "view",
      "type": "function"
    },
    {
      "inputs": [
        {
          "internalType": "enum IPaymaster.PostOpMode",
          "name": "mode",
          "type": "uint8"
        },
        {
          "internalType": "bytes",
          "name": "context",
          "type": "bytes"
        },
        {
          "internalType": "uint256",
          "name": "actualGasCost",
          "type": "uint256"
        },
        {
          "internalType": "uint256",
          "name": "actualUserOpFeePerGas",
          "type": "uint256"
        }
      ],
      "name": "postOp",
      "outputs": [],
      "stateMutability": "nonpayable",
      "type": "function"
    },
    {
      "inputs": [],
      "name": "renounceOwnership",
      "outputs": [],
      "stateMutability": "nonpayable",
      "type": "function"
    },
    {
      "inputs": [
        {
          "internalType": "address",
          "name": "newOwner",
          "type": "address"
        }
      ],
      "name": "transferOwnership",
      "outputs": [],
      "stateMutability": "nonpayable",
      "type": "function"
    },
    {
      "inputs": [],
      "name": "unlockStake",
      "outputs": [],
      "stateMutability": "nonpayable",
      "type": "function"
    },
    {
      "inputs": [
        {
          "components": [
            {
              "internalType": "address",
              "name": "sender",
              "type": "address"
            },
            {
              "internalType": "uint256",
              "name": "nonce",
              "type": "uint256"
            },
            {
              "internalType": "bytes",
              "name": "initCode",
              "type": "bytes"
            },
            {
              "internalType": "bytes",
              "name": "callData",
              "type": "bytes"
            },
            {
              "internalType": "bytes32",
              "name": "accountGasLimits",
              "type": "bytes32"
            },
            {
              "internalType": "uint256",
              "name": "preVerificationGas",
              "type": "uint256"
            },
            {
              "internalType": "bytes32",
              "name": "gasFees",
              "type": "bytes32"
            },
            {
              "internalType": "bytes",
              "name": "paymasterAndData",
              "type": "bytes"
            },
            {
              "internalType": "bytes",
              "name": "signature",
              "type": "bytes"
            }
          ],
          "internalType": "struct PackedUserOperation",
          "name": "userOp",
          "type": "tuple"
        },
        {
          "internalType": "bytes32",
          "name": "userOpHash",
          "type": "bytes32"
        },
        {
          "internalType": "uint256",
          "name": "maxCost",
          "type": "uint256"
        }
      ],
      "name": "validatePaymasterUserOp",
      "outputs": [
        {
          "internalType": "bytes",
          "name": "context",
          "type": "bytes"
        },
        {
          "internalType": "uint256",
          "name": "validationData",
          "type": "uint256"
        }
      ],
      "stateMutability": "nonpayable",
      "type": "function"
    },
    {
      "inputs": [
        {
          "internalType": "address",
          "name": "",
          "type": "address"
        }
      ],
      "name": "whitelist",
      "outputs": [
        {
          "internalType": "bool",
          "name": "",
          "type": "bool"
        }
      ],
      "stateMutability": "view",
      "type": "function"
    },
    {
      "inputs": [
        {
          "internalType": "address payable",
          "name": "withdrawAddress",
          "type": "address"
        }
      ],
      "name": "withdrawStake",
      "outputs": [],
      "stateMutability": "nonpayable",
      "type": "function"
    },
    {
      "inputs": [
        {
          "internalType": "address payable",
          "name": "withdrawAddress",
          "type": "address"
        },
        {
          "internalType": "uint256",
          "name": "amount",
          "type": "uint256"
        }
      ],
      "name": "withdrawTo",
      "outputs": [],
      "stateMutability": "nonpayable",
      "type": "function"
    },
    {
      "inputs": [
        {
          "internalType": "address",
          "name": "sender",
          "type": "address"
        }
      ],
      "name": "whitelistSender",
      "outputs": [],
      "stateMutability": "nonpayable",
      "type": "function"
    },
    {
      "inputs": [
        {
          "internalType": "address",
          "name": "sender",
          "type": "address"
        }
      ],
      "name": "revokeSender",
      "outputs": [],
      "stateMutability": "nonpayable",
      "type": "function"
    }
  ],
  "bytecode": "0x60a060405234801561000f575f5ffd5b50604051610da4380380610da483398101604081905261002e916101a7565b80338061005557604051631e4fbdf760e01b81525f60048201526024015b60405180910390fd5b61005e81610083565b506100688161009f565b6001600160a01b031660805261007d33610083565b506101f3565b600180546001600160a01b031916905561009c81610158565b50565b6040516301ffc9a760e01b8152631313998b60e31b60048201526001600160a01b038216906301ffc9a790602401602060405180830381865afa1580156100e8573d5f5f3e3d5ffd5b505050506040513d601f19601f8201168201806040525081019061010c91906101d4565b61009c5760405162461bcd60e51b815260206004820152601e60248201527f49456e747279506f696e7420696e74657266616365206d69736d617463680000604482015260640161004c565b5f80546001600160a01b038381166001600160a01b0319831681178455604051919092169283917f8be0079c531659141344cd1fd0a4f28419497f9722a3daafe3b4186f6b6457e09190a35050565b5f602082840312156101b7575f5ffd5b81516001600160a01b03811681146101cd575f5ffd5b9392505050565b5f602082840312156101e4575f5ffd5b815180151581146101cd575f5ffd5b608051610b6861023c5f395f818161026c01528181610349015281816103dc01528181610564015281816105f901528181610663015281816106ee01526107e00152610b685ff3fe6080604052600436106100fa575f3560e01c80639b19251a11610092578063c23a5cea11610062578063c23a5cea146102a2578063c399ec88146102c1578063d0e30db0146102e3578063e30c3978146102eb578063f2fde38b14610308575f5ffd5b80639b19251a146101fe578063ab2042821461023c578063b0d691fe1461025b578063bb9fe6bf1461028e575f5ffd5b8063715018a6116100cd578063715018a61461018757806379ba50971461019b5780637c627b21146101af5780638da5cb5b146101ce575f5ffd5b80630396cb60146100fe578063205c2878146101135780632f10a6c61461013257806352b7512c14610151575b5f5ffd5b61011161010c366004610979565b610327565b005b34801561011e575f5ffd5b5061011161012d3660046109b7565b6103ae565b34801561013d575f5ffd5b5061011161014c3660046109e1565b61041d565b34801561015c575f5ffd5b5061017061016b3660046109fc565b610470565b60405161017e929190610a4b565b60405180910390f35b348015610192575f5ffd5b50610111610492565b3480156101a6575f5ffd5b506101116104a5565b3480156101ba575f5ffd5b506101116101c9366004610a87565b6104ee565b3480156101d9575f5ffd5b505f546001600160a01b03165b6040516001600160a01b03909116815260200161017e565b348015610209575f5ffd5b5061022c6102183660046109e1565b60026020525f908152604090205460ff1681565b604051901515815260200161017e565b348015610247575f5ffd5b506101116102563660046109e1565b61050a565b348015610266575f5ffd5b506101e67f000000000000000000000000000000000000000000000000000000000000000081565b348015610299575f5ffd5b5061011161055a565b3480156102ad575f5ffd5b506101116102bc3660046109e1565b6105d2565b3480156102cc575f5ffd5b506102d561064c565b60405190815260200161017e565b6101116106d9565b3480156102f6575f5ffd5b506001546001600160a01b03166101e6565b348015610313575f5ffd5b506101116103223660046109e1565b610739565b61032f6107a9565b604051621cb65b60e51b815263ffffffff821660048201527f00000000000000000000000000000000000000000000000000000000000000006001600160a01b031690630396cb609034906024015f604051808303818588803b158015610394575f5ffd5b505af11580156103a6573d5f5f3e3d5ffd5b505050505050565b6103b66107a9565b60405163040b850f60e31b81526001600160a01b038381166004830152602482018390527f0000000000000000000000000000000000000000000000000000000000000000169063205c2878906044015f604051808303815f87803b158015610394575f5ffd5b6104256107a9565b6001600160a01b0381165f81815260026020526040808220805460ff19166001179055517faab7954e9d246b167ef88aeddad35209ca2489d95a8aeb59e288d9b19fae5a549190a250565b60605f61047b6107d5565b610486858585610845565b91509150935093915050565b61049a6107a9565b6104a35f6108d9565b565b60015433906001600160a01b031681146104e25760405163118cdaa760e01b81526001600160a01b03821660048201526024015b60405180910390fd5b6104eb816108d9565b50565b6104f66107d5565b61050385858585856108f2565b5050505050565b6105126107a9565b6001600160a01b0381165f81815260026020526040808220805460ff19169055517fb6fa8b8bd5eab60f292eca876e3ef90722275b785309d84b1de113ce0b8c4e749190a250565b6105626107a9565b7f00000000000000000000000000000000000000000000000000000000000000006001600160a01b031663bb9fe6bf6040518163ffffffff1660e01b81526004015f604051808303815f87803b1580156105ba575f5ffd5b505af11580156105cc573d5f5f3e3d5ffd5b50505050565b6105da6107a9565b60405163611d2e7560e11b81526001600160a01b0382811660048301527f0000000000000000000000000000000000000000000000000000000000000000169063c23a5cea906024015f604051808303815f87803b15801561063a575f5ffd5b505af1158015610503573d5f5f3e3d5ffd5b6040516370a0823160e01b81523060048201525f907f00000000000000000000000000000000000000000000000000000000000000006001600160a01b0316906370a0823190602401602060405180830381865afa1580156106b0573d5f5f3e3d5ffd5b505050506040513d601f19601f820116820180604052508101906106d49190610b1b565b905090565b60405163b760faf960e01b81523060048201527f00000000000000000000000000000000000000000000000000000000000000006001600160a01b03169063b760faf99034906024015f604051808303818588803b15801561063a575f5ffd5b6107416107a9565b600180546001600160a01b0383166001600160a01b031990911681179091556107715f546001600160a01b031690565b6001600160a01b03167f38d16b8cac22d99fc7c124b9cd0de2d3fa1faef420bfe791d8c362d765e2270060405160405180910390a350565b5f546001600160a01b031633146104a35760405163118cdaa760e01b81523360048201526024016104d9565b336001600160a01b037f000000000000000000000000000000000000000000000000000000000000000016146104a35760405162461bcd60e51b815260206004820152601560248201527414d95b99195c881b9bdd08115b9d1c9e541bda5b9d605a1b60448201526064016104d9565b60605f60028161085860208801886109e1565b6001600160a01b0316815260208101919091526040015f205460ff166108c05760405162461bcd60e51b815260206004820152601760248201527f2053656e646572206e6f742077686974656c697374656400000000000000000060448201526064016104d9565b505060408051602081019091525f808252935093915050565b600180546001600160a01b03191690556104eb8161092a565b60405162461bcd60e51b815260206004820152600d60248201526c6d757374206f7665727269646560981b60448201526064016104d9565b5f80546001600160a01b038381166001600160a01b0319831681178455604051919092169283917f8be0079c531659141344cd1fd0a4f28419497f9722a3daafe3b4186f6b6457e09190a35050565b5f60208284031215610989575f5ffd5b813563ffffffff8116811461099c575f5ffd5b9392505050565b6001600160a01b03811681146104eb575f5ffd5b5f5f604083850312156109c8575f5ffd5b82356109d3816109a3565b946020939093013593505050565b5f602082840312156109f1575f5ffd5b813561099c816109a3565b5f5f5f60608486031215610a0e575f5ffd5b833567ffffffffffffffff811115610a24575f5ffd5b84016101208187031215610a36575f5ffd5b95602085013595506040909401359392505050565b604081525f83518060408401528060208601606085015e5f606082850101526060601f19601f8301168401019150508260208301529392505050565b5f5f5f5f5f60808688031215610a9b575f5ffd5b853560038110610aa9575f5ffd5b9450602086013567ffffffffffffffff811115610ac4575f5ffd5b8601601f81018813610ad4575f5ffd5b803567ffffffffffffffff811115610aea575f5ffd5b886020828401011115610afb575f5ffd5b959860209190910197509495604081013595606090910135945092505050565b5f60208284031215610b2b575f5ffd5b505191905056fea264697066735822122022209934a3d7a912d2fa9f6de1be3eec30ff229fdc0a0977215c5b16395cbca764736f6c634300081c0033",
  "immutableReferences": {
    "760": [
      {
        "length": 32,
        "start": 620
      },
      {
        "length": 32,
        "start": 841
      },
      {
        "length": 32,
        "start": 988
      },
      {
        "length": 32,
        "start": 1380
      },
      {
        "length": 32,
        "start": 1529
      },
      {
        "length": 32,
        "start": 1635
      },
      {
        "length": 32,
        "start": 1774
      },
      {
        "length": 32,
        "start": 2016
      }
    ]
  },
  "source": "// SPDX-License-Identifier: UNLICENSED\r\npragma solidity ^0.8.20;\r\n\r\nimport \"./BasePaymaster.sol\";\r\nimport \"./Helpers.sol\";\r\nimport \"./UserOperation.sol\";\r\nimport \"./PackedUserOperation.sol\";\r\n\r\nusing UserOperationLib for PackedUserOperation;\r\n\r\ncontract Paymaster is BasePaymaster {\r\n    mapping(address => bool) public whitelist;\r\n\r\n    event Whitelisted(address indexed sender);\r\n    event Revoked(address indexed sender);\r\nconstructor(IEntryPoint _entryPoint) BasePaymaster(_entryPoint) {\r\n    _transferOwnership(msg.sender);\r\n}\r\n    function whitelistSender(address sender) external onlyOwner {\r\n        whitelist[sender] = true;\r\n        emit Whitelisted(sender);\r\n    }\r\n\r\n    function revokeSender(address sender) external onlyOwner {\r\n        whitelist[sender] = false;\r\n        emit Revoked(sender);\r\n    }\r\n\r\n    function _validatePaymasterUserOp(\r\n        PackedUserOperation calldata userOp,\r\n        bytes32, /* userOpHash */\r\n        uint256 /* maxCost */\r\n    )\r\n        internal\r\n        override\r\n        returns (bytes memory context, uint256 validationData)\r\n    {\r\n        require(whitelist[userOp.sender], \" Sender not whitelisted\");\r\n        return (\"\", 0);\r\n    }\r\n\r\n    function _postOp(\r\n        PostOpMode mode,\r\n        bytes calldata context,\r\n        uint256 actualGasCost,\r\n        uint256 actualUserOpFeePerGas\r\n    ) internal override {\r\n        (mode, context, actualGasCost, actualUserOpFeePerGas); // unused params\r\n        // subclass must override this method if validatePaymasterUserOp returns a context\r\n        revert(\"must override\");\r\n    }\r\n\r\n}\r\n",
  "sourcePath": "C:\\Users\\ECON\\OneDrive\\Desktop\\Biconomy clone\\contracts\\contracts\\Paymaster.sol",
  "compiler": {
    "name": "solc",
    "version": "0.8.28+commit.7893614a.Emscripten.clang"
  },
  "schemaVersion": "3.4.16",
  "updatedAt": "2025-06-05T05:05:53.935Z",
  "devdoc": {
    "errors": {
      "OwnableInvalidOwner(address)": [
        {
          "details": "The owner is not a valid owner account. (eg. `address(0)`)"
        }
      ],
      "OwnableUnauthorizedAccount(address)": [
        {
          "details": "The caller account is not authorized to perform an operation."
        }
      ]
    },
    "kind": "dev",
    "methods": {
      "acceptOwnership()": {
        "details": "The new owner accepts the ownership transfer."
      },
      "addStake(uint32)": {
        "params": {
          "unstakeDelaySec": "- The unstake delay for this paymaster. Can only be increased."
        }
      },
      "owner()": {
        "details": "Returns the address of the current owner."
      },
      "pendingOwner()": {
        "details": "Returns the address of the pending owner."
      },
      "postOp(uint8,bytes,uint256,uint256)": {
        "params": {
          "actualGasCost": "- Actual cost of gas used so far (without this postOp call).",
          "actualUserOpFeePerGas": "- the gas price this UserOp pays. This value is based on the UserOp's maxFeePerGas                        and maxPriorityFee (and basefee)                        It is not the same as tx.gasprice, which is what the bundler pays.",
          "context": "- The context value returned by validatePaymasterUserOp",
          "mode": "- Enum with the following options:                        opSucceeded - User operation succeeded.                        opReverted  - User op reverted. The paymaster still has to pay for gas.                        postOpReverted - never passed in a call to postOp()."
        }
      },
      "renounceOwnership()": {
        "details": "Leaves the contract without owner. It will not be possible to call `onlyOwner` functions. Can only be called by the current owner. NOTE: Renouncing ownership will leave the contract without an owner, thereby disabling any functionality that is only available to the owner."
      },
      "transferOwnership(address)": {
        "details": "Starts the ownership transfer of the contract to a new account. Replaces the pending transfer if there is one. Can only be called by the current owner. Setting `newOwner` to the zero address is allowed; this can be used to cancel an initiated ownership transfer."
      },
      "validatePaymasterUserOp((address,uint256,bytes,bytes,bytes32,uint256,bytes32,bytes,bytes),bytes32,uint256)": {
        "params": {
          "maxCost": "- The maximum cost of this transaction (based on maximum gas and gas price from userOp).",
          "userOp": "- The user operation.",
          "userOpHash": "- Hash of the user's request data."
        },
        "returns": {
          "context": "       - Value to send to a postOp. Zero length to signify postOp is not required.",
          "validationData": "- Signature and time-range of this operation, encoded the same as the return                          value of validateUserOperation.                          <20-byte> aggregatorOrSigFail - 0 for valid signature, 1 to mark signature failure,                                                    other values are invalid for paymaster.                          <6-byte> validUntil - Last timestamp this operation is valid at, or 0 for \"indefinitely\"                          <6-byte> validAfter - first timestamp this operation is valid                          Note that the validation code cannot use block.timestamp (or block.number) directly."
        }
      },
      "withdrawStake(address)": {
        "params": {
          "withdrawAddress": "- The address to send withdrawn value."
        }
      },
      "withdrawTo(address,uint256)": {
        "params": {
          "amount": "- Amount to withdraw.",
          "withdrawAddress": "- Target to send to."
        }
      }
    },
    "version": 1
  },
  "userdoc": {
    "kind": "user",
    "methods": {
      "addStake(uint32)": {
        "notice": "Add stake for this paymaster. This method can also carry eth value to add to the current stake."
      },
      "deposit()": {
        "notice": "Add a deposit for this paymaster, used for paying for transaction fees."
      },
      "getDeposit()": {
        "notice": "Return current paymaster's deposit on the entryPoint."
      },
      "postOp(uint8,bytes,uint256,uint256)": {
        "notice": "Post-operation handler. Must verify sender is the entryPoint."
      },
      "unlockStake()": {
        "notice": "Unlock the stake, in order to withdraw it. The paymaster can't serve requests once unlocked, until it calls addStake again"
      },
      "validatePaymasterUserOp((address,uint256,bytes,bytes,bytes32,uint256,bytes32,bytes,bytes),bytes32,uint256)": {
        "notice": "Payment validation: check if paymaster agrees to pay. Must verify sender is the entryPoint. Revert to reject this request. Note that bundlers will reject this method if it changes the state, unless the paymaster is trusted (whitelisted). The paymaster pre-pays using its deposit, and receive back a refund after the postOp method returns."
      },
      "withdrawStake(address)": {
        "notice": "Withdraw the entire paymaster's stake. stake must be unlocked first (and then wait for the unstakeDelay to be over)"
      },
      "withdrawTo(address,uint256)": {
        "notice": "Withdraw value from the deposit."
      }
    },
    "version": 1
  }
}