{
  "contractName": "UserOperationLib",
  "abi": [
    {
      "inputs": [],
      "name": "PAYMASTER_DATA_OFFSET",
      "outputs": [
        {
          "internalType": "uint256",
          "name": "",
          "type": "uint256"
        }
      ],
      "stateMutability": "view",
      "type": "function"
    },
    {
      "inputs": [],
      "name": "PAYMASTER_POSTOP_GAS_OFFSET",
      "outputs": [
        {
          "internalType": "uint256",
          "name": "",
          "type": "uint256"
        }
      ],
      "stateMutability": "view",
      "type": "function"
    },
    {
      "inputs": [],
      "name": "PAYMASTER_VALIDATION_GAS_OFFSET",
      "outputs": [
        {
          "internalType": "uint256",
          "name": "",
          "type": "uint256"
        }
      ],
      "stateMutability": "view",
      "type": "function"
    }
  ],
  "bytecode": "0x60a76032600b8282823980515f1a607314602657634e487b7160e01b5f525f60045260245ffd5b305f52607381538281f3fe73000000000000000000000000000000000000000030146080604052600436106046575f3560e01c806325093e1b14604a578063b29a8ff4146063578063ede3150214606a575b5f5ffd5b6051602481565b60405190815260200160405180910390f35b6051601481565b605160348156fea26469706673582212202fc464ee838d5b3a72c1c968c8c3a426057bddde859b77cb91db4f3c1508922764736f6c634300081c0033",
  "immutableReferences": {},
  "source": "// SPDX-License-Identifier: MIT\npragma solidity ^0.8.28;\n\n/* solhint-disable no-inline-assembly */\n\nimport \"../interfaces/PackedUserOperation.sol\";\nimport {calldataKeccak, min} from \"./Helpers.sol\";\n\n/**\n * Utility functions helpful when working with UserOperation structs.\n */\nlibrary UserOperationLib {\n\n    uint256 public constant PAYMASTER_VALIDATION_GAS_OFFSET = 20;\n    uint256 public constant PAYMASTER_POSTOP_GAS_OFFSET = 36;\n    uint256 public constant PAYMASTER_DATA_OFFSET = 52;\n\n    /**\n     * Relayer/block builder might submit the TX with higher priorityFee,\n     * but the user should not pay above what he signed for.\n     * @param userOp - The user operation data.\n     */\n    function gasPrice(\n        PackedUserOperation calldata userOp\n    ) internal view returns (uint256) {\n        unchecked {\n            (uint256 maxPriorityFeePerGas, uint256 maxFeePerGas) = unpackUints(userOp.gasFees);\n            return min(maxFeePerGas, maxPriorityFeePerGas + block.basefee);\n        }\n    }\n\n    bytes32 internal constant PACKED_USEROP_TYPEHASH =\n    keccak256(\n        \"PackedUserOperation(address sender,uint256 nonce,bytes initCode,bytes callData,bytes32 accountGasLimits,uint256 preVerificationGas,bytes32 gasFees,bytes paymasterAndData)\"\n    );\n\n    /**\n     * Pack the user operation data into bytes for hashing.\n     * @param userOp - The user operation data.\n     * @param overrideInitCodeHash - If set, encode this instead of the initCode field in the userOp.\n     */\n    function encode(\n        PackedUserOperation calldata userOp,\n        bytes32 overrideInitCodeHash\n    ) internal pure returns (bytes memory ret) {\n        address sender = userOp.sender;\n        uint256 nonce = userOp.nonce;\n        bytes32 hashInitCode = overrideInitCodeHash != 0 ? overrideInitCodeHash : calldataKeccak(userOp.initCode);\n        bytes32 hashCallData = calldataKeccak(userOp.callData);\n        bytes32 accountGasLimits = userOp.accountGasLimits;\n        uint256 preVerificationGas = userOp.preVerificationGas;\n        bytes32 gasFees = userOp.gasFees;\n        bytes32 hashPaymasterAndData = calldataKeccak(userOp.paymasterAndData);\n\n        return abi.encode(\n            UserOperationLib.PACKED_USEROP_TYPEHASH,\n            sender, nonce,\n            hashInitCode, hashCallData,\n            accountGasLimits, preVerificationGas, gasFees,\n            hashPaymasterAndData\n        );\n    }\n\n    function unpackUints(\n        bytes32 packed\n    ) internal pure returns (uint256 high128, uint256 low128) {\n        return (unpackHigh128(packed), unpackLow128(packed));\n    }\n\n    // Unpack just the high 128-bits from a packed value\n    function unpackHigh128(bytes32 packed) internal pure returns (uint256) {\n        return uint256(packed) >> 128;\n    }\n\n    // Unpack just the low 128-bits from a packed value\n    function unpackLow128(bytes32 packed) internal pure returns (uint256) {\n        return uint128(uint256(packed));\n    }\n\n    function unpackMaxPriorityFeePerGas(PackedUserOperation calldata userOp)\n    internal pure returns (uint256) {\n        return unpackHigh128(userOp.gasFees);\n    }\n\n    function unpackMaxFeePerGas(PackedUserOperation calldata userOp)\n    internal pure returns (uint256) {\n        return unpackLow128(userOp.gasFees);\n    }\n\n    function unpackVerificationGasLimit(PackedUserOperation calldata userOp)\n    internal pure returns (uint256) {\n        return unpackHigh128(userOp.accountGasLimits);\n    }\n\n    function unpackCallGasLimit(PackedUserOperation calldata userOp)\n    internal pure returns (uint256) {\n        return unpackLow128(userOp.accountGasLimits);\n    }\n\n    function unpackPaymasterVerificationGasLimit(PackedUserOperation calldata userOp)\n    internal pure returns (uint256) {\n        return uint128(bytes16(userOp.paymasterAndData[PAYMASTER_VALIDATION_GAS_OFFSET : PAYMASTER_POSTOP_GAS_OFFSET]));\n    }\n\n    function unpackPostOpGasLimit(PackedUserOperation calldata userOp)\n    internal pure returns (uint256) {\n        return uint128(bytes16(userOp.paymasterAndData[PAYMASTER_POSTOP_GAS_OFFSET : PAYMASTER_DATA_OFFSET]));\n    }\n\n    function unpackPaymasterStaticFields(\n        bytes calldata paymasterAndData\n    ) internal pure returns (address paymaster, uint256 validationGasLimit, uint256 postOpGasLimit) {\n        return (\n            address(bytes20(paymasterAndData[: PAYMASTER_VALIDATION_GAS_OFFSET])),\n            uint128(bytes16(paymasterAndData[PAYMASTER_VALIDATION_GAS_OFFSET : PAYMASTER_POSTOP_GAS_OFFSET])),\n            uint128(bytes16(paymasterAndData[PAYMASTER_POSTOP_GAS_OFFSET : PAYMASTER_DATA_OFFSET]))\n        );\n    }\n\n    /**\n     * Hash the user operation data.\n     * @param userOp - The user operation data.\n     * @param overrideInitCodeHash - If set, the initCode hash will be replaced with this value just for UserOp hashing.\n     */\n    function hash(\n        PackedUserOperation calldata userOp,\n        bytes32 overrideInitCodeHash\n    ) internal pure returns (bytes32) {\n        return keccak256(encode(userOp, overrideInitCodeHash));\n    }\n}\n",
  "sourcePath": "@account-abstraction\\contracts\\core\\UserOperationLib.sol",
  "compiler": {
    "name": "solc",
    "version": "0.8.28+commit.7893614a.Emscripten.clang"
  },
  "schemaVersion": "3.4.16",
  "updatedAt": "2025-06-05T05:05:53.804Z",
  "devdoc": {
    "kind": "dev",
    "methods": {},
    "version": 1
  },
  "userdoc": {
    "kind": "user",
    "methods": {},
    "notice": "Utility functions helpful when working with UserOperation structs.",
    "version": 1
  }
}