{
  "contractName": "WalletFactory",
  "abi": [
    {
      "inputs": [
        {
          "internalType": "contract IEntryPoint",
          "name": "_entryPoint",
          "type": "address"
        }
      ],
      "stateMutability": "nonpayable",
      "type": "constructor"
    },
    {
      "inputs": [],
      "name": "accountImplementation",
      "outputs": [
        {
          "internalType": "contract SimpleAccount",
          "name": "",
          "type": "address"
        }
      ],
      "stateMutability": "view",
      "type": "function"
    },
    {
      "inputs": [
        {
          "internalType": "address",
          "name": "owner",
          "type": "address"
        },
        {
          "internalType": "uint256",
          "name": "salt",
          "type": "uint256"
        }
      ],
      "name": "createAccount",
      "outputs": [
        {
          "internalType": "contract SimpleAccount",
          "name": "ret",
          "type": "address"
        }
      ],
      "stateMutability": "nonpayable",
      "type": "function"
    },
    {
      "inputs": [
        {
          "internalType": "address",
          "name": "owner",
          "type": "address"
        },
        {
          "internalType": "uint256",
          "name": "salt",
          "type": "uint256"
        }
      ],
      "name": "getAddress",
      "outputs": [
        {
          "internalType": "address",
          "name": "",
          "type": "address"
        }
      ],
      "stateMutability": "view",
      "type": "function"
    },
    {
      "inputs": [],
      "name": "senderCreator",
      "outputs": [
        {
          "internalType": "contract ISenderCreator",
          "name": "",
          "type": "address"
        }
      ],
      "stateMutability": "view",
      "type": "function"
    }
  ],
  "bytecode": "0x60c060405234801561000f575f5ffd5b5060405161218a38038061218a83398101604081905261002e91610117565b808060405161003c906100f3565b6001600160a01b039091168152602001604051809103905ff080158015610065573d5f5f3e3d5ffd5b506001600160a01b03166080816001600160a01b031681525050806001600160a01b03166309ccb8806040518163ffffffff1660e01b8152600401602060405180830381865afa1580156100bb573d5f5f3e3d5ffd5b505050506040513d601f19601f820116820180604052508101906100df9190610117565b6001600160a01b031660a052506101399050565b61182b8061095f83390190565b6001600160a01b0381168114610114575f5ffd5b50565b5f60208284031215610127575f5ffd5b815161013281610100565b9392505050565b60805160a0516107f361016c5f395f81816053015260ea01525f8181609601528181610197015261025f01526107f35ff3fe608060405234801561000f575f5ffd5b506004361061004a575f3560e01c806309ccb8801461004e57806311464fbe146100915780635fbfb9cf146100b85780638cb84e18146100cb575b5f5ffd5b6100757f000000000000000000000000000000000000000000000000000000000000000081565b6040516001600160a01b03909116815260200160405180910390f35b6100757f000000000000000000000000000000000000000000000000000000000000000081565b6100756100c6366004610341565b6100de565b6100756100d9366004610341565b610222565b5f336001600160a01b037f0000000000000000000000000000000000000000000000000000000000000000161461015b5760405162461bcd60e51b815260206004820181905260248201527f6f6e6c792063616c6c61626c652066726f6d2053656e64657243726561746f72604482015260640160405180910390fd5b5f6101668484610222565b90506001600160a01b0381163b80156101815750905061021c565b6040516001600160a01b038616602482015284907f00000000000000000000000000000000000000000000000000000000000000009060440160408051601f198184030181529181526020820180516001600160e01b031663189acdbd60e31b179052516101ee90610334565b6101f9929190610376565b8190604051809103905ff5905080158015610216573d5f5f3e3d5ffd5b50925050505b92915050565b5f6102f4825f1b6040518060200161023990610334565b601f1982820381018352601f9091011660408190526001600160a01b03871660248201527f00000000000000000000000000000000000000000000000000000000000000009060440160408051601f19818403018152918152602080830180516001600160e01b031663189acdbd60e31b17905290516102bb93929101610376565b60408051601f19818403018152908290526102d992916020016103d1565b604051602081830303815290604052805190602001206102fb565b9392505050565b5f6102f48383305f604051836040820152846020820152828152600b8101905060ff8153605590206001600160a01b0316949350505050565b6103d0806103ee83390190565b5f5f60408385031215610352575f5ffd5b82356001600160a01b0381168114610368575f5ffd5b946020939093013593505050565b60018060a01b0383168152604060208201525f82518060408401528060208501606085015e5f606082850101526060601f19601f8301168401019150509392505050565b5f81518060208401855e5f93019283525090919050565b5f6103e56103df83866103ba565b846103ba565b94935050505056fe60806040526040516103d03803806103d08339810160408190526100229161023c565b61002c8282610033565b5050610321565b61003c82610091565b6040516001600160a01b038316907fbc7cd75a20ee27fd9adebab32041f755214dbc6bffa90cc0225b39da2e5c2d3b905f90a280511561008557610080828261010c565b505050565b61008d61017f565b5050565b806001600160a01b03163b5f036100cb57604051634c9c8ce360e01b81526001600160a01b03821660048201526024015b60405180910390fd5b7f360894a13ba1a3210667c828492db98dca3e2076cc3735a920a3ca505d382bbc80546001600160a01b0319166001600160a01b0392909216919091179055565b60605f5f846001600160a01b031684604051610128919061030b565b5f60405180830381855af49150503d805f8114610160576040519150601f19603f3d011682016040523d82523d5f602084013e610165565b606091505b5090925090506101768583836101a0565b95945050505050565b341561019e5760405163b398979f60e01b815260040160405180910390fd5b565b6060826101b5576101b0826101ff565b6101f8565b81511580156101cc57506001600160a01b0384163b155b156101f557604051639996b31560e01b81526001600160a01b03851660048201526024016100c2565b50805b9392505050565b80511561020f5780518082602001fd5b60405163d6bda27560e01b815260040160405180910390fd5b634e487b7160e01b5f52604160045260245ffd5b5f5f6040838503121561024d575f5ffd5b82516001600160a01b0381168114610263575f5ffd5b60208401519092506001600160401b0381111561027e575f5ffd5b8301601f8101851361028e575f5ffd5b80516001600160401b038111156102a7576102a7610228565b604051601f8201601f19908116603f011681016001600160401b03811182821017156102d5576102d5610228565b6040528181528282016020018710156102ec575f5ffd5b8160208401602083015e5f602083830101528093505050509250929050565b5f82518060208501845e5f920191825250919050565b60a38061032d5f395ff3fe6080604052600a600c565b005b60186014601a565b6050565b565b5f604b7f360894a13ba1a3210667c828492db98dca3e2076cc3735a920a3ca505d382bbc546001600160a01b031690565b905090565b365f5f375f5f365f845af43d5f5f3e8080156069573d5ff35b3d5ffdfea2646970667358221220222a4cff90e803117ceaf8a27676f54b14cca2d082531d02b269155c24f748b464736f6c634300081c0033a26469706673582212207a3ee97e80849d744b46386879dc4e31599077b5a21e4b7499858bbc52ffb73964736f6c634300081c003360c060405230608052348015610013575f5ffd5b5060405161182b38038061182b833981016040819052610032916100ff565b6001600160a01b03811660a05261004761004d565b5061012c565b7ff0c57e16840df040f15088dc2f81fe391c3923bec73e23a9662efc9c229c6a00805468010000000000000000900460ff161561009d5760405163f92ee8a960e01b815260040160405180910390fd5b80546001600160401b03908116146100fc5780546001600160401b0319166001600160401b0390811782556040519081527fc7f505b2f371ae2175ee4913f4499e1f2633a7b5936321eed1cdaeb6115181d29060200160405180910390a15b50565b5f6020828403121561010f575f5ffd5b81516001600160a01b0381168114610125575f5ffd5b9392505050565b60805160a05161169f61018c5f395f818161029d015281816104e90152818161056d015281816106a00152818161082b01528181610865015281816109970152610cc201525f8181610acb01528181610af40152610c38015261169f5ff3fe6080604052600436106100fd575f3560e01c80638da5cb5b11610092578063bc197c8111610062578063bc197c81146102e0578063c399ec881461030e578063c4d66de814610322578063d087d28814610341578063f23a6e6114610355575f5ffd5b80638da5cb5b1461021c578063ad3cb1cc14610252578063b0d691fe1461028f578063b61d27f6146102c1575f5ffd5b80634a58db19116100cd5780634a58db19146101ce5780634d44560d146101d65780634f1ef286146101f557806352d1902d14610208575f5ffd5b806301ffc9a714610108578063150b7a021461013c57806319822f7c1461018057806334fcd5be146101ad575f5ffd5b3661010457005b5f5ffd5b348015610113575f5ffd5b506101276101223660046110d3565b610381565b60405190151581526020015b60405180910390f35b348015610147575f5ffd5b50610167610156366004611152565b630a85bd0160e11b95945050505050565b6040516001600160e01b03199091168152602001610133565b34801561018b575f5ffd5b5061019f61019a3660046111bf565b6103d2565b604051908152602001610133565b3480156101b8575f5ffd5b506101cc6101c736600461124d565b6103f7565b005b6101cc6104e7565b3480156101e1575f5ffd5b506101cc6101f036600461128b565b610563565b6101cc6102033660046112c9565b6105ef565b348015610213575f5ffd5b5061019f61060e565b348015610227575f5ffd5b505f5461023a906001600160a01b031681565b6040516001600160a01b039091168152602001610133565b34801561025d575f5ffd5b50610282604051806040016040528060058152602001640352e302e360dc1b81525081565b60405161013391906113ba565b34801561029a575f5ffd5b507f000000000000000000000000000000000000000000000000000000000000000061023a565b3480156102cc575f5ffd5b506101cc6102db3660046113cc565b610629565b3480156102eb575f5ffd5b506101676102fa366004611423565b63bc197c8160e01b98975050505050505050565b348015610319575f5ffd5b5061019f610681565b34801561032d575f5ffd5b506101cc61033c3660046114e3565b61070f565b34801561034c575f5ffd5b5061019f610805565b348015610360575f5ffd5b5061016761036f3660046114fe565b63f23a6e6160e01b9695505050505050565b5f6001600160e01b03198216630a85bd0160e11b14806103b157506001600160e01b03198216630271189760e51b145b806103cc57506001600160e01b031982166301ffc9a760e01b145b92915050565b5f6103db61085a565b6103e584846108d4565b90506103f082610947565b9392505050565b6103ff61098c565b805f5b818110156104e1573684848381811061041d5761041d611574565b905060200281019061042f9190611588565b90505f61048d61044260208401846114e3565b602084013561045460408601866115a6565b8080601f0160208091040260200160405190810160405280939291908181526020018383808284375f920191909152505050505a610a18565b9050806104d757836001036104a9576104a4610a2e565b6104d7565b826104b35f610a3f565b604051635a15467560e01b81526004016104ce9291906115e8565b60405180910390fd5b5050600101610402565b50505050565b7f000000000000000000000000000000000000000000000000000000000000000060405163b760faf960e01b81523060048201526001600160a01b03919091169063b760faf99034906024015f604051808303818588803b15801561054a575f5ffd5b505af115801561055c573d5f5f3e3d5ffd5b5050505050565b61056b610a70565b7f000000000000000000000000000000000000000000000000000000000000000060405163040b850f60e31b81526001600160a01b03848116600483015260248201849052919091169063205c2878906044015f604051808303815f87803b1580156105d5575f5ffd5b505af11580156105e7573d5f5f3e3d5ffd5b505050505050565b6105f7610ac0565b61060082610b64565b61060a8282610b6c565b5050565b5f610617610c2d565b505f51602061164a5f395f51905f5290565b61063161098c565b5f610672858585858080601f0160208091040260200160405190810160405280939291908181526020018383808284375f920191909152505050505a610a18565b90508061055c5761055c610a2e565b6040516370a0823160e01b81523060048201525f906001600160a01b037f000000000000000000000000000000000000000000000000000000000000000016906370a08231906024015b602060405180830381865afa1580156106e6573d5f5f3e3d5ffd5b505050506040513d601f19601f8201168201806040525081019061070a9190611608565b905090565b5f610718610c76565b805490915060ff600160401b82041615906001600160401b03165f8115801561073e5750825b90505f826001600160401b031660011480156107595750303b155b905081158015610767575080155b156107855760405163f92ee8a960e01b815260040160405180910390fd5b845467ffffffffffffffff1916600117855583156107af57845460ff60401b1916600160401b1785555b6107b886610c9e565b83156105e757845460ff60401b19168555604051600181527fc7f505b2f371ae2175ee4913f4499e1f2633a7b5936321eed1cdaeb6115181d29060200160405180910390a1505050505050565b604051631aab3f0d60e11b81523060048201525f60248201819052906001600160a01b037f000000000000000000000000000000000000000000000000000000000000000016906335567e1a906044016106cb565b336001600160a01b037f000000000000000000000000000000000000000000000000000000000000000016146108d25760405162461bcd60e51b815260206004820152601c60248201527f6163636f756e743a206e6f742066726f6d20456e747279506f696e740000000060448201526064016104ce565b565b5f610920826108e76101008601866115a6565b8080601f0160208091040260200160405190810160405280939291908181526020018383808284375f92019190915250610d0c92505050565b5f546001600160a01b0390811691161461093c575060016103cc565b505f92915050565b50565b8015610944576040515f90339083908381818185875af1925050503d805f811461055c576040519150601f19603f3d011682016040523d82523d5f602084013e61055c565b336001600160a01b037f00000000000000000000000000000000000000000000000000000000000000001614806109cc57505f546001600160a01b031633145b6108d25760405162461bcd60e51b815260206004820181905260248201527f6163636f756e743a206e6f74204f776e6572206f7220456e747279506f696e7460448201526064016104ce565b5f5f5f845160208601878987f195945050505050565b6108d2610a3a5f610a3f565b610d34565b60603d8215610a535782811115610a535750815b604051602082018101604052818152815f602083013e9392505050565b5f546001600160a01b0316331480610a8757503330145b6108d25760405162461bcd60e51b815260206004820152600a60248201526937b7363c9037bbb732b960b11b60448201526064016104ce565b306001600160a01b037f0000000000000000000000000000000000000000000000000000000000000000161480610b4657507f00000000000000000000000000000000000000000000000000000000000000006001600160a01b0316610b3a5f51602061164a5f395f51905f52546001600160a01b031690565b6001600160a01b031614155b156108d25760405163703e46dd60e11b815260040160405180910390fd5b610944610a70565b816001600160a01b03166352d1902d6040518163ffffffff1660e01b8152600401602060405180830381865afa925050508015610bc6575060408051601f3d908101601f19168201909252610bc391810190611608565b60015b610bee57604051634c9c8ce360e01b81526001600160a01b03831660048201526024016104ce565b5f51602061164a5f395f51905f528114610c1e57604051632a87526960e21b8152600481018290526024016104ce565b610c288383610d3c565b505050565b306001600160a01b037f000000000000000000000000000000000000000000000000000000000000000016146108d25760405163703e46dd60e11b815260040160405180910390fd5b5f807ff0c57e16840df040f15088dc2f81fe391c3923bec73e23a9662efc9c229c6a006103cc565b5f80546001600160a01b0319166001600160a01b03838116918217835560405191927f0000000000000000000000000000000000000000000000000000000000000000909116917f47e55c76e7a6f1fd8996a1da8008c1ea29699cca35e7bcd057f2dec313b6e5de9190a350565b5f5f5f5f610d1a8686610d91565b925092509250610d2a8282610dda565b5090949350505050565b805160208201fd5b610d4582610e92565b6040516001600160a01b038316907fbc7cd75a20ee27fd9adebab32041f755214dbc6bffa90cc0225b39da2e5c2d3b905f90a2805115610d8957610c288282610ef5565b61060a610f67565b5f5f5f8351604103610dc8576020840151604085015160608601515f1a610dba88828585610f86565b955095509550505050610dd3565b505081515f91506002905b9250925092565b5f826003811115610ded57610ded61161f565b03610df6575050565b6001826003811115610e0a57610e0a61161f565b03610e285760405163f645eedf60e01b815260040160405180910390fd5b6002826003811115610e3c57610e3c61161f565b03610e5d5760405163fce698f760e01b8152600481018290526024016104ce565b6003826003811115610e7157610e7161161f565b0361060a576040516335e2f38360e21b8152600481018290526024016104ce565b806001600160a01b03163b5f03610ec757604051634c9c8ce360e01b81526001600160a01b03821660048201526024016104ce565b5f51602061164a5f395f51905f5280546001600160a01b0319166001600160a01b0392909216919091179055565b60605f5f846001600160a01b031684604051610f119190611633565b5f60405180830381855af49150503d805f8114610f49576040519150601f19603f3d011682016040523d82523d5f602084013e610f4e565b606091505b5091509150610f5e85838361104e565b95945050505050565b34156108d25760405163b398979f60e01b815260040160405180910390fd5b5f80807f7fffffffffffffffffffffffffffffff5d576e7357a4501ddfe92f46681b20a0841115610fbf57505f91506003905082611044565b604080515f808252602082018084528a905260ff891692820192909252606081018790526080810186905260019060a0016020604051602081039080840390855afa158015611010573d5f5f3e3d5ffd5b5050604051601f1901519150506001600160a01b03811661103b57505f925060019150829050611044565b92505f91508190505b9450945094915050565b6060826110635761105e826110aa565b6103f0565b815115801561107a57506001600160a01b0384163b155b156110a357604051639996b31560e01b81526001600160a01b03851660048201526024016104ce565b50806103f0565b8051156110ba5780518082602001fd5b60405163d6bda27560e01b815260040160405180910390fd5b5f602082840312156110e3575f5ffd5b81356001600160e01b0319811681146103f0575f5ffd5b6001600160a01b0381168114610944575f5ffd5b5f5f83601f84011261111e575f5ffd5b5081356001600160401b03811115611134575f5ffd5b60208301915083602082850101111561114b575f5ffd5b9250929050565b5f5f5f5f5f60808688031215611166575f5ffd5b8535611171816110fa565b94506020860135611181816110fa565b93506040860135925060608601356001600160401b038111156111a2575f5ffd5b6111ae8882890161110e565b969995985093965092949392505050565b5f5f5f606084860312156111d1575f5ffd5b83356001600160401b038111156111e6575f5ffd5b840161012081870312156111f8575f5ffd5b95602085013595506040909401359392505050565b5f5f83601f84011261121d575f5ffd5b5081356001600160401b03811115611233575f5ffd5b6020830191508360208260051b850101111561114b575f5ffd5b5f5f6020838503121561125e575f5ffd5b82356001600160401b03811115611273575f5ffd5b61127f8582860161120d565b90969095509350505050565b5f5f6040838503121561129c575f5ffd5b82356112a7816110fa565b946020939093013593505050565b634e487b7160e01b5f52604160045260245ffd5b5f5f604083850312156112da575f5ffd5b82356112e5816110fa565b915060208301356001600160401b038111156112ff575f5ffd5b8301601f8101851361130f575f5ffd5b80356001600160401b03811115611328576113286112b5565b604051601f8201601f19908116603f011681016001600160401b0381118282101715611356576113566112b5565b60405281815282820160200187101561136d575f5ffd5b816020840160208301375f602083830101528093505050509250929050565b5f81518084528060208401602086015e5f602082860101526020601f19601f83011685010191505092915050565b602081525f6103f0602083018461138c565b5f5f5f5f606085870312156113df575f5ffd5b84356113ea816110fa565b93506020850135925060408501356001600160401b0381111561140b575f5ffd5b6114178782880161110e565b95989497509550505050565b5f5f5f5f5f5f5f5f60a0898b03121561143a575f5ffd5b8835611445816110fa565b97506020890135611455816110fa565b965060408901356001600160401b0381111561146f575f5ffd5b61147b8b828c0161120d565b90975095505060608901356001600160401b03811115611499575f5ffd5b6114a58b828c0161120d565b90955093505060808901356001600160401b038111156114c3575f5ffd5b6114cf8b828c0161110e565b999c989b5096995094979396929594505050565b5f602082840312156114f3575f5ffd5b81356103f0816110fa565b5f5f5f5f5f5f60a08789031215611513575f5ffd5b863561151e816110fa565b9550602087013561152e816110fa565b9450604087013593506060870135925060808701356001600160401b03811115611556575f5ffd5b61156289828a0161110e565b979a9699509497509295939492505050565b634e487b7160e01b5f52603260045260245ffd5b5f8235605e1983360301811261159c575f5ffd5b9190910192915050565b5f5f8335601e198436030181126115bb575f5ffd5b8301803591506001600160401b038211156115d4575f5ffd5b60200191503681900382131561114b575f5ffd5b828152604060208201525f611600604083018461138c565b949350505050565b5f60208284031215611618575f5ffd5b5051919050565b634e487b7160e01b5f52602160045260245ffd5b5f82518060208501845e5f92019182525091905056fe360894a13ba1a3210667c828492db98dca3e2076cc3735a920a3ca505d382bbca26469706673582212200e89376597b28eaf779f62cac2fc0b34a3b3128aec97c8fac7260b025a87bf9e64736f6c634300081c0033",
  "immutableReferences": {
    "236": [
      {
        "length": 32,
        "start": 150
      },
      {
        "length": 32,
        "start": 407
      },
      {
        "length": 32,
        "start": 607
      }
    ],
    "239": [
      {
        "length": 32,
        "start": 83
      },
      {
        "length": 32,
        "start": 234
      }
    ]
  },
  "source": "// SPDX-License-Identifier: UNLICENSED\r\npragma solidity ^0.8.20;\r\n\r\nimport \"@account-abstraction/contracts/accounts/SimpleAccountFactory.sol\";\r\n\r\ncontract WalletFactory is SimpleAccountFactory {\r\n    constructor(IEntryPoint _entryPoint)\r\n        SimpleAccountFactory(_entryPoint) {}\r\n}",
  "sourcePath": "C:\\Users\\ECON\\OneDrive\\Desktop\\Biconomy clone\\contracts\\contracts\\WalletFactory.sol",
  "compiler": {
    "name": "solc",
    "version": "0.8.28+commit.7893614a.Emscripten.clang"
  },
  "schemaVersion": "3.4.16",
  "updatedAt": "2025-06-05T05:05:53.951Z",
  "devdoc": {
    "kind": "dev",
    "methods": {},
    "version": 1
  },
  "userdoc": {
    "kind": "user",
    "methods": {
      "createAccount(address,uint256)": {
        "notice": "create an account, and return its address. returns the address even if the account is already deployed. Note that during UserOperation execution, this method is called only if the account is not deployed. This method returns an existing account address so that entryPoint.getSenderAddress() would work even after account creation"
      },
      "getAddress(address,uint256)": {
        "notice": "calculate the counterfactual address of this account as it would be returned by createAccount()"
      }
    },
    "version": 1
  }
}